:020000040800F2
:10000000F807002045010008B5390008CD160008A2
:10001000A9360008810C000887580008000000007D
:10002000000000000000000000000000093F000880
:100030009D11000800000000573A0008A940000880
:100040005F0100085F0100085F0100085F01000810
:100050005F0100085F0100085F0100085F01000800
:100060005F0100085F0100085F0100085F010008F0
:100070005F0100085F0100085F0100085F010008E0
:100080005F0100085F0100085F0100085F010008D0
:100090005F0100085F0100085F0100089F11000870
:1000A0005F0100085F0100085F0100085F010008B0
:1000B0004D43000805470008DD4900085F010008BE
:1000C0005F0100085F0100085F0100085F01000890
:1000D0005F0100080D5500085F0100085155000838
:1000E0005F0100085F0100085F0100085F01000870
:1000F0005F0100085F0100085F0100085F01000860
:100100005F0100085F010008694A00085F010008FC
:100110005F0100085F0100085F0100085F0100083F
:100120005F0100085F0100085F0100085F0100082F
:10013000DFF80CD000F0D2FC00480047A57400089E
:10014000F80700200648804706480047FEE7FEE71C
:10015000FEE7FEE7FEE7FEE7FEE7FEE7FEE7FEE777
:10016000AD40000831010008F0B480EA0102D40F6C
:100170004200B2EB410F02D20246084611464A0045
:1001800042D0C30DDDB2C1F3C752AD1A202D35DA0E
:10019000C1F3160141F4000204B15242C5F1200638
:1001A00002FA06F12A411044B3EBD05F23D0C4B168
:1001B000012DA0EBC35009DCF0BC4FF0004202EA75
:1001C000C352DBB200F5000000F07DBB400000F13F
:1001D000807000EBC350A0F1807040EAD1704900FC
:1001E00009E0490841EAC071A0EBC35000F50000E6
:1001F000400800EBC350F0BC00F05CBB6142012240
:1002000002EB4101001BF6E7F0BC704781F00041B2
:10021000AAE780F00040A7E780EA010210B502F0EB
:100220000043400022D04A001FD0010E01EB1261B2
:10023000C0F35600C2F3560240F4000042F400023C
:10024000A0FB022000047F39140400D0401C50EAB7
:10025000124001D44000491EC2B20C0604EBD0107B
:10026000401C4008802A02D003E0002010BD20F08E
:100270000100002900DA0020184310BD30B480EAE4
:10028000010202F0004530F0004221F0004013D09E
:1002900090B1C30DD40DC2F31601C0F31600E41AD9
:1002A00041F4000140F400027D34914201D3641C0A
:1002B00000E04900002C02DA30BC002070474FF407
:1002C00000000023914201D3891A034340084FEAFA
:1002D0004101F7D151B1914202D14FF0004105E007
:1002E00002D24FF0010101E06FF0010103EBC450B5
:1002F000284430BC00F0DEBA2DE9FE4F804681EA8A
:100300000300C00F0C46009021F0004123F000458F
:10031000B8EB0200A94105D24046214690461C4652
:100320000B46024623F00040104347D0270DC7F389
:100330000A00C3F30A510290401A019040286BDA78
:10034000C3F3130040F4801B0098924620B10023B1
:10035000D2EB030A63EB0B0B01985946C0F1400244
:10036000504600F076FA06460D4650465946019A28
:1003700000F08EFA10EB08006141002487EA115268
:1003800084EAE7731A4340D0009A62B3019A012AC3
:100390004FEA075215DC001B61EB02014FF00042EF
:1003A00002EA0752CDE90042001C41F580113246B5
:1003B0002B4600F0C5FA03B0BDE8F08F4046214659
:1003C000F9E7001B61EB0201001C41F580130018E6
:1003D0005B412018A2F5001747EB030140EAD570F6
:1003E000B6196D4111E06D084FEA360645EAC07551
:1003F0004FEA0752001B61EB0201001C41F580111E
:1004000049084FEA30000019514132462B4603B0EB
:10041000BDE8F04F00F085BA0098012240000023AB
:10042000D0EB020263EBE073009821464FEAE074E0
:10043000B8EB000061EB0401E9E783F000435BE700
:1004400081F0004158E72DE9FE4F81EA030404F0F2
:10045000004421F0004100944FF0000B23F00043D2
:1004600050EA01045ED052EA03045BD0C3F30A549D
:10047000C1F30A552C44A4F2F3340194A0FB0254B6
:10048000C1F3130141F48011C3F3130343F4801348
:1004900001FB024400FB034E840A970A44EA81549C
:1004A00047EA8357A4FB076802958D0A05FB078579
:1004B0004FEA932C04FB0C542705029D4FEA065883
:1004C00047EA1637B5EB08056EEB070C870E920E60
:1004D00047EA811742EA8312A7FB0201B6EB0B0140
:1004E00064EB00042B0D43EA0C335E1844EB1C5004
:1004F000DA465146E7FB0201C5F313044FEA0B331A
:1005000043EA14534FEA0432019C43EA0603A4F180
:100510000C040294009CCDE900B400F011FA03B081
:10052000BDE8F08F00200146F9E72DE9F04D81EAA2
:10053000030404F0004B21F0004514464FF0000A7C
:1005400023F0004150EA050220D054EA01021DD0F8
:10055000C5F30A570246C5F31303C1F31300C1F3F1
:100560000A5640F4801543F48013A7EB0608101BCD
:10057000D64608F2FD3873EB050002D308F10108F6
:1005800001E092185B41B8F1000F03DA0020014648
:10059000BDE8F08D00204FF48011064684460EE041
:1005A000171B73EB050705D3121B63EB050306430B
:1005B0004CEA010C49084FEA300092185B4150EABE
:1005C0000107EDD152EA030012D082EA040083EA67
:1005D0000501084305D0101BAB4106D201220023C0
:1005E00006E000224FF0004302E06FF001025310DA
:1005F0001AEB06004CEB085110EB0A0041EB0B0123
:10060000BDE8F04D00F08DB9C10F80EAE0700844FC
:10061000CA079623002100F056B9962300221146FE
:1006200000F051B90EB5C10F80EAE0700844CA0766
:10063000002140F233438DE80E000A460B4600F0DD
:100640007FF903B000BD00F0004220F00040C10D72
:10065000C0F3160040F400007F2901DA0020704743
:10066000962903DCC1F19601C84001E09639884023
:10067000002AF4D04042704720F00040C10DC0F382
:10068000160040F400007F2901DA00207047962907
:1006900003DCC1F19601C840704796398840704725
:1006A00070B5C1F30A5201F000450024C1F31301F3
:1006B00040F2FF3341F480119A4201DA002070BD0C
:1006C00040F233439A42A2F2334203DC524200F03A
:1006D000CFF800E090402C43F1D0404270BD00F0D4
:1006E000004230F000400AD0C10D01F56071C0F346
:1006F000160042EA0151C20840071143704700202A
:100700000146704730B5041E71F1000404DB4FF060
:100710000044404264EB0101141E73F1000405DB48
:100720001C464FF00043524263EB04038B4208BF68
:10073000824230BD30B5041E71F1000404DB4FF07D
:100740000044404264EB0101141E73F1000405DB18
:100750001C464FF00043524263EB0403994208BF2A
:10076000904230BD01F0004330B421F0004150EA26
:10077000010206D00A0DA2F56072C1F31301002A2E
:1007800002DC30BC00207047440F44EAC104C100C1
:10079000E01830BC00EBC25000F08CB8002801DB40
:1007A000C0F10040002901DBC1F1004181427047E6
:1007B000002801DBC0F10040002901DBC1F100414C
:1007C0008842704730B50B460146002020220124A4
:1007D00009E021FA02F59D4205D303FA02F5491B0F
:1007E00004FA02F52844151EA2F10102F1DC30BD25
:1007F0002DE9F05F0546002092469B468846064656
:10080000814640241BE0284641464746224600F0E8
:100810002FF853465A46C01A914110D31146184634
:10082000224600F016F82D1A67EB01084F462246C3
:100830000120002100F00DF817EB00094E41201EA9
:10084000A4F10104DFDC484631462A464346BDE8B0
:10085000F09F202A04DB203A00FA02F100207047C2
:100860009140C2F1200320FA03F3194390407047EE
:10087000202A04DB203A21FA02F00021704721FAF5
:1008800002F3D040C2F1200291400843194670475C
:10089000202A06DBCB17203A41FA02F043EAE07344
:1008A00006E041FA02F3D040C2F120029140084331
:1008B000194670470029A8BF7047401C490008BF6F
:1008C00020F00100704710B4B0FA80FC00FA0CF080
:1008D00050EA010404BF10BC704749B1CCF12004B8
:1008E00021FA04F411FA0CF118BF01212143084345
:1008F000A3EB0C01CB1D4FEA00614FEA102042BF71
:10090000002010BC704700EBC35010440029A4BF66
:1009100010BC7047401C490008BF20F0010010BC0B
:10092000704710B5141E73F1000408DA401C41F141
:10093000000192185B411A4301D120F0010010BD63
:100940002DE9F04D92469B4611B1B1FA81F202E0D9
:10095000B0FA80F220329046FFF77BFF04460F4644
:1009600040EA0A0041EA0B0153465A46084313D0B5
:10097000114653EA010019D0C8F140025046FFF772
:1009800077FF05460E46504659464246FFF761FF3F
:10099000084305D0012004E020463946BDE8F08D2B
:1009A0000020054346EAE0762C4337430A98630566
:1009B000E40AA0EB08000022FD0A44EA47540A308A
:1009C00002D500200146E9E7010510196941DDE97A
:1009D000084500196941BDE8F04DA2E770B521F066
:1009E000004303430CD0C1F30A550024D5EB0405A2
:1009F00064EB0403D617AD1AB34102DB00200146B5
:100A000070BD201841EB025170BD2DE9F04D00235F
:100A10001A461B1A8A4103DB00200146BDE8F08D0F
:100A2000C1F30A52C1F3130141F480154FF0000BDA
:100A3000D10702D100186D41521E0027044640F232
:100A4000FF11384601EB620A3E468046024600200E
:100A50004FF48011FFF70CFFC2197141BB1846EB30
:100A60000100B4EB030C75EB000C04D3E41A65EB46
:100A7000000517460E46241908F101006D41804615
:100A80003428E3DDF91946EB0600091BA84103D21F
:100A90004FF0FF32134601E0002213461BEB070024
:100AA00046EB0A51BDE8F04DFFF73BBFC1F30A52D8
:100AB000C1F3130140F2FF3341F480119A4202DA8C
:100AC00000200146704740F233439A42A2F233427B
:100AD00002DC5242FFF7CCBEFFF7BBBE064C074D0F
:100AE00006E0E06840F0010394E8070098471034FE
:100AF000AC42F6D3FFF720FBB8810008D88100088C
:100B00000EB540F2334102910021CDE900110A46B1
:100B10000B46FFF715FF03B000BD00002DE9F04FB5
:100B200085B04FF4966A4FF4E16B03244D4909896F
:100B300009B2A1F2DC50FFF767FD07464A49FFF70B
:100B40009DFB06464949FFF767FB0546FFF77BFD1E
:100B500040420FFA80F94349898909B2A1F2DC5079
:100B6000FFF752FD05464249FFF788FB04903D48D8
:100B70000068504501D8022406E03A48006858450C
:100B800001D8012400E0032436484068504503D8CA
:100B90000020384908700AE032484068584503D8B8
:100BA00000203449087002E00120324908703148C1
:100BB000007800284BD0032C01D0022C4DD12021ED
:100BC0002D4800F040FD20B920212B4800F046FDC3
:100BD00003E02021284800F03FFD2248C06840F291
:100BE000A461884205D21F48C06840F2145188426F
:100BF0001CD80498FFF773FD07464FF066321F4B71
:100C0000FFF721FC0546FFF7ADFD029003F0AAF8BF
:100C1000019003F035F80090DDE9011202F046FD85
:100C200001460390032002F003FE02E0032002F0DD
:100C3000E1FDB9F1020F02DA19F1020F03DC4846B7
:100C400003F064F909E0002003F060F905E00020FA
:100C500003F05CF9032002F0CDFD204605B0BDE8AD
:100C6000F08F0000E40300200000FA4300008C42F3
:100C700000002F446E0000200018014066661440FA
:100C800000BFFEE770B5044600251EE006F002FA3C
:100C9000022006F085FA1F4A11681F4A1068FFF704
:100CA00063FA1D4908601B4A51681B4A5068FFF7E8
:100CB0005BFA19494860174A9168174A9068FFF72C
:100CC00053FA15498860681C85B2A542DEDB2046D0
:100CD000FFF7A3FC0646104908683146FFF7CEFA35
:100CE0000D4908602046FFF798FC06460A49486807
:100CF0003146FFF7C3FA084948602046FFF78DFCEC
:100D00000646054988683146FFF7B8FA0249886007
:100D100070BD00003001002054010020F0B54FF4F8
:100D2000FA700E4940F272226FF4347340F21344A9
:100D3000BE25461806EBD6777F10DFF824C0ACF846
:100D40000070D61806EBD6777F10ACF802706619E3
:100D500006EBD6777F10ACF80470F0BDE5FBFFFF23
:100D6000360000202DE9FF5F804801680068FFF72A
:100D700053FA83467E4801680068FFF74DFA5946EA
:100D80000190FFF7F1F982464FF08041FFF744FAF6
:100D900081464FF07E51FFF73CFA0446FFF79FFC77
:100DA00007468846714801684FF08040FFF734FAE3
:100DB0008346704801685846FFF72EFA81466E4810
:100DC00001684FF08040FFF727FA834668480168C2
:100DD0005846FFF721FA82464946FFF7C5F904460F
:100DE000FFF77DFC3A464346CDE9020105F0DCFF02
:100DF0000546FFF7B7FC614908605C4801685E483A
:100E00000068FFF709FA82465A48016858480068A6
:100E1000FFF702FA83465146FFF7F8F981464FF093
:100E20004041FFF7F9F90446FFF759FC074605F082
:100E300073FD0546FFF796FC514908604D4801686F
:100E40000068FFF7E9F98346484801680068FFF742
:100E5000E3F959460190FFF787F982464FF0804148
:100E6000FFF7DAF981464FF07E51FFF7D2F90446D9
:100E7000FFF735FC05460E463D4801684FF08040BF
:100E8000FFF7CAF98346394801685846FFF7C4F9A5
:100E90008146394801684FF08040FFF7BDF983462D
:100EA000344801685846FFF7B7F982464946FFF7CC
:100EB0005BF90446FFF713FC07462A46334605F064
:100EC00073FFCDE90201FFF74DFC2E4908602B4866
:100ED000006880F0004B2C495846FFF79DF9824688
:100EE000FFF7FDFB8046294A294BFFF71EFB06460C
:100EF0004FF00042274BFFF7A0FA0446FFF732FC01
:100F000025490860002124480068FFF747FC06D205
:100F1000224921480068FFF727F91F4908601A494C
:100F200017480068FFF778F98046FFF7D8FB0646B8
:100F3000164A174BFFF7F9FA0446FFF713FC184956
:100F4000086011490F480068FFF766F98046FFF70F
:100F5000C6FB06460D4A0E4BFFF7E7FA0446FFF7BD
:100F600001FC10490860BDE8FF9F000084000020DC
:100F700080000020880000208C00002098000020C5
:100F80009400002090000020000034434AD8124D05
:100F9000FB21094028F98C3F9C0000200000B4434D
:100FA000A4000020A000002000F0805111B10349EE
:100FB000086001E0024948607047000004040240F4
:100FC0000000024021B1026842F00102026004E028
:100FD00002684FF6FE731A400260704701684FF6D0
:100FE000FE72114001600021016041608160C160BA
:100FF0004B49884208D14A490839496841F00F01F4
:10100000474A083A51608AE045491431884208D17C
:1010100043490839496841F0F001414A083A5160B2
:101020007DE03F492831884208D13D490839496867
:1010300041F470613A4A083A516070E038493C31F5
:10104000884208D136490839496841F47041344A28
:10105000083A516063E032495031884208D1304942
:101060000839496841F470212D4A083A516056E028
:101070002B496431884208D129490839496841F42B
:101080007001274A083A516049E025497831884281
:1010900008D123490839496841F07061204A083A6B
:1010A00051603CE01F49884206D1011F096841F0A8
:1010B0000F01021F116032E01A491431884208D131
:1010C0001849091F096841F0F001164A121F116002
:1010D00025E014492831884208D11249091F0968BE
:1010E00041F470610F4A121F116018E00D493C3144
:1010F000884208D10B49091F096841F47041094A27
:10110000121F11600BE007495031884207D1054991
:10111000091F096841F47021024A121F11607047CB
:1011200008000240080402400146486880B2704747
:1011300001460020002201F0805313B1054B1A68CC
:1011400001E0054B1A6802EA01030BB1012000E03F
:1011500000207047000402400000024010B5002249
:10116000026847F6F0739A430C6A8B6823430C6954
:1011700023434C6923438C692343CC6923434C6A42
:1011800023438C6A23431A430260CB6843600B6895
:1011900083604B68C36010BD41607047704710B5F5
:1011A000202000F00BF8202000F002F810BD000015
:1011B0000149086070470000140401400146002006
:1011C0000022074B1B6803EA0102054B14331B681E
:1011D0000B4013B10AB1012000E00020704700006D
:1011E0000004014000B589B00121084602F068FC06
:1011F0000121042002F084FC0320ADF80800042043
:101200008DF80B0002A9244800F092F906A804F01A
:10121000BDF80020ADF818004FF4C360ADF81C0015
:101220000020ADF81E00ADF81A0006A94FF080406E
:1012300004F05AF800231A4603214FF0804003F0CF
:1012400043FE03A803F0D6FE0A20ADF8140003A95C
:10125000400703F079FE0121880703F01FFD0122FA
:101260001146900703F0CFFE1C208DF804000120EA
:101270008DF805008DF806008DF8070001A802F032
:101280009BFB00214FF0804004F000F8012188070B
:1012900003F00AFD09B000BD0008014000B589B0A7
:1012A0000121042002F00CFC0121082002F028FC9E
:1012B000C020ADF8080004208DF80B0002A92348D7
:1012C00000F036F906A804F061F80020ADF8180027
:1012D0004FF4C360ADF81C000020ADF81E00ADF85F
:1012E0001A0006A91A4803F0FFFF00231A4603213B
:1012F000174803F0E9FD03A803F07CFE0A20ADF8CF
:10130000140003A9124803F01FFE0121104803F046
:10131000C5FC012211460E4803F075FE1E208DF813
:10132000040001208DF805008DF806008DF80700F7
:1013300001A802F041FB0021054803F0A7FF0121AD
:10134000034803F0B1FC09B000BD0000000C0140EF
:10135000000800402DE9FF4F89B0064689469246B5
:10136000042008900521169890FBF1F05949B1F935
:101370000010884265DC0020564908804E4507DB96
:10138000A6EB0904B42C01DB002508E0012506E0EA
:10139000A9EB0604B42C01DB012500E000259DF833
:1013A000200084424ADB412C11DD15B1012D09D109
:1013B00003E0412002F0AAFD08E06FF0400002F0D7
:1013C000A5FD03E0002002F0A1FD00BF39E015B14A
:1013D000012D2ED116E01E2C02DD00203E4908E032
:1013E0002046FFF71FF900223C4BCDE90601FFF72D
:1013F0002AF80746FFF754F90FFA80FB584602F027
:1014000085FD1AE01E2C02DD0020354908E020464B
:10141000FFF708F90022334BCDE90601FFF713F877
:101420000746FFF73DF90FFA80FB584602F06EFDC4
:1014300003E0002002F06AFD00BF02E0002002F09D
:1014400065FD0C9800F0800018B1032002F0D2F97D
:1014500037E0BAF1C80F0FDD02F084FC804602F0DD
:101460000FFC8346204A414602F020F907463946E0
:10147000032002F0DDF924E014209AFBF0FB58462B
:10148000FFF7D0F80746194A194BFEF7DCFF002298
:10149000184BCDE90001FEF7D6FFCDE90201FFF7B9
:1014A00061F9069002F05EFC059002F0E9FB049001
:1014B000DDE9051202F0FAF801460790032002F078
:1014C000B7F904480088401C00B2024908800DB0FA
:1014D000BDE8F08FC6000020000049400000F83F42
:1014E000000049C00000F8BF9A999940C3F5285CF4
:1014F0008FC2B53F0000184008B50121402002F01E
:10150000FFFA10208DF803004020ADF80000032002
:101510008DF802006946054800F00AF82020ADF871
:1015200000006946014800F003F808BD00180140BA
:101530002DE9F0410246002500260020002300246A
:10154000002791F803C00CF00F0591F803C00CF0D0
:10155000100CBCF1000F03D091F802C04CEA050555
:1015600091F800C0BCF1000F31D0146800202BE0CE
:101570004FF0010C0CFA00F3B1F800C00CEA0306BE
:101580009E4220D183004FF00F0C0CFA03F7BC43AE
:1015900005FA03FC4CEA040491F803C0BCF1280FDF
:1015A00006D14FF0010C0CFA00FCC2F814C00AE09E
:1015B00091F803C0BCF1480F05D14FF0010C0CFAB3
:1015C00000FCC2F810C0401C0828D1D31460B1F848
:1015D00000C0BCF1FF0F34DD546800202EE000F1A4
:1015E000080C4FF0010808FA0CF3B1F800C00CEA3F
:1015F00003069E4221D183004FF00F0C0CFA03F733
:10160000BC4305FA03FC4CEA040491F803C0BCF1A6
:10161000280F05D100F1080C08FA0CF8C2F8148064
:1016200091F803C0BCF1480F07D100F1080C4FF04E
:10163000010808FA0CF8C2F81080401C0828CED324
:101640005460BDE8F0810246002093680B400BB166
:10165000012000E000207047416170470161704740
:101660000020064908704870887048608860C8602B
:10167000086148618861C86108847047E8000020FB
:1016800070B5044600252146094804F0F8F806E044
:10169000681C85B2FF2D02DD0025002070BD4021B1
:1016A000034804F01FF80128F2D100BFF6E700005C
:1016B0000048004001488088704700001403002063
:1016C00001488088704700007801002000BFFEE7D5
:1016D00010B54FF480510D48FFF7BEFF02F002FC39
:1016E0004FF400610948FFF7B7FF022005F076FDCF
:1016F0004FF480510548FFF7B1FF022005F06EFD61
:101700004FF480510148FFF7A7FF10BD00100140C2
:1017100008B50121102002F0F3F94FF4C050ADF8E4
:10172000000010208DF8030003208DF802006946A8
:101730000648FFF7FDFE4FF480510448FFF78EFF87
:101740004FF400610148FFF789FF08BD0010014018
:1017500010B54FF480510D48FFF77EFF02F0C2FB39
:101760004FF400610948FFF779FF022005F036FDCC
:101770004FF480510548FFF771FF022005F02EFD60
:101780004FF480510148FFF767FF10BD0010014082
:1017900070B50546002402F095FB00261BE04FF4CF
:1017A00080511248FFF758FF022005F017FD4FF453
:1017B00080510E48FFF752FF6006040E4FF400619F
:1017C0000A48FFF740FF08B1601CC4B2012005F0D1
:1017D00005FD701CC6B2082EE1DB15B9FFF7B8FF96
:1017E00001E0FFF775FF204670BD000000100140CA
:1017F00070B5044602F076FB4FF480511748FFF7AE
:101800002BFF002526E0E00930B101280AD1C102F2
:101810001248FFF723FF05E04FF400610F48FFF780
:101820001BFF00BF00BF6006040E022005F0D6FCBF
:101830004FF480510948FFF711FF022005F0CEFC5C
:101840004FF480510548FFF707FF022005F0C6FC62
:10185000681CC5B2082DD6DB70BD00000010014029
:1018600010B502F03FFB4FF400610E48FFF7F6FEA3
:10187000022005F0B3FC4FF480510A48FFF7EEFE5A
:10188000032005F0ABFC4FF400610648FFF7E4FECF
:10189000032005F0A3FC4FF480510248FFF7DCFE63
:1018A00010BD00000010014010B502F01BFB4FF40A
:1018B00080510C48FFF7D0FE4FF400610948FFF754
:1018C000CBFE032005F08AFC4FF480510548FFF75A
:1018D000C5FE4FF400610348FFF7C0FE032005F08A
:1018E0007DFC10BD0010014010B5002402F0EAFAA2
:1018F0004FF400611248FFF7B1FE012005F06EFCC5
:101900004FF480510E48FFF7A9FE012005F066FC58
:1019100007E0601C84B2FA2C03DDFFF7C5FF00204E
:1019200010BD4FF400610648FFF78DFE0028F0D18E
:101930004FF480510248FFF78FFE0120F0E70000CE
:10194000001001404CF6CC4001490860704700008F
:10195000003000404AF6AA200149086070470000A4
:1019600000300040014948607047000000300040EE
:10197000014988607047000000300040014908605C
:10198000704700000030004000B593B04FF4A060F5
:1019900002F04AF8FE480078119005F0DFFB03F0F2
:1019A000BFF8FFF7A9FDFFF7B3FE06F011F806F048
:1019B00007F801F0CBFF032001F01CFF002002F02C
:1019C000A5FA4FF42F7005F0EBFB002211464FF4FF
:1019D000612006F0D7F90020EE490870FFF740FEBD
:1019E000052005F0DDFB4FF4E13006F06DF9052030
:1019F00005F0D6FB4FF4E13003F02EFD052005F095
:101A0000CFFB4FF4E13006F05FF9052005F0C8FB8D
:101A100003F00AFD052005F0C3FB03F0C1FC05201F
:101A200005F0BEFB03F0D4FC06F010FA20B1DAA0FA
:101A300003F0BCFF05F078FA00F006FC06F029FA86
:101A400010B1DAA003F0B2FF6420FFF71BF9FFF733
:101A500065F905F0DFFE05F01DFB002005F0E2FB57
:101A6000D74880680B90FEF73AFECDE90E01D448C6
:101A700040680B90FEF733FECDE90C01DDE90E2343
:101A800005F092F9CDE91001FEF76CFECD49086032
:101A9000CB4880680B90FEF722FECDE90E01C848C6
:101AA00000680B90FEF71BFECDE90C01DDE90E236B
:101AB00005F07AF9CDE91001FEF754FEC24908603D
:101AC000C248B0F900000890FEF79EFD0990FEF7AD
:101AD00006FECDE90C01BD48B0F902000890FEF702
:101AE00093FD0990FEF7FBFDCDE90A01DDE90C232A
:101AF00005F05AF9B64AB74BCDE90E01FEF7A0FC46
:101B0000CDE91001FEF72EFEB3490860B348B0F9E5
:101B10000000FEF779FD1190AF4801681198FEF7BB
:101B200078FBAD4908604FF08041A7480068FEF798
:101B3000A5FB0590FEF7D3FDCDE9060105F050FFAA
:101B4000CDE90A014FF080419E480068FEF796FB00
:101B50000190FEF7C4FDCDE9020105F041FFCDE99A
:101B600006014FF080419C480068FEF787FB01901A
:101B7000FEF7B5FDCDE9020105F032FFCDE9040124
:101B8000DDE90623FEF75FFCCDE90801DDE90A2364
:101B9000FEF759FCCDE90E014FF080418A480068FC
:101BA000FEF76CFB0590FEF79AFDCDE9060105F006
:101BB00023FACDE90A014FF0804182480068FEF720
:101BC0005DFB0190FEF78BFDCDE9020105F014FAF3
:101BD000CDE906014FF080417F480068FEF74EFBDB
:101BE0000190FEF77CFDCDE9020105F005FACDE993
:101BF0000401DDE90623FEF726FCCDE90801DDE955
:101C00000A23FEF720FCCDE90C01DDE90E23FEF7E7
:101C100073FBCDE91001FEF7A5FD714908604FF097
:101C2000804169480068FEF729FB0590FEF757FDE3
:101C3000CDE9060105F0D4FECDE90A014FF080415F
:101C400060480068FEF71AFB0190FEF748FDCDE9F9
:101C5000020105F0C5FECDE906014FF080415E4866
:101C60000068FEF70BFB0190FEF739FDCDE902019C
:101C700005F0C2F9CDE90401DDE90623FEF7E3FB37
:101C8000CDE90801DDE90A23FEF7DDFBCDE90E0110
:101C90004FF080414C480068FEF7F0FA0590FEF7DF
:101CA0001EFDCDE9060105F0A7F9CDE90A014FF0C7
:101CB000804144480068FEF7E1FA0190FEF70FFD0D
:101CC000CDE9020105F098F9CDE906014FF0804118
:101CD00041480068FEF7D2FA0190FEF700FDCDE919
:101CE000020105F07DFECDE90401DDE90623FEF7E2
:101CF000AAFBCDE90801DDE90A23FEF7A4FBCDE943
:101D00000C01DDE90E23FEF798FBCDE91001FEF78B
:101D100029FD344908604FF080412B480068FEF7E8
:101D2000ADFA0590FEF7DBFCCDE9060105F058FEA3
:101D3000CDE90A014FF0804122480068FEF79EFA83
:101D40000190FEF7CCFCCDE9020105F055F9CDE993
:101D500006014FF0804120480068FEF78FFA01909D
:101D6000FEF7BDFCCDE9020105F03AFECDE9040124
:101D7000DDE90623FEF767FBCDE90801DDE90A236B
:101D8000FEF761FBCDE90E014FF080410E482BE0DC
:101D9000140000206A0000200A436F6D70617373A5
:101DA000204F6E6C696E65210A0000000A4D505587
:101DB00036303530204F6E6C696E65210A000000A8
:101DC0001801002094000020900000203000002026
:101DD0004AD8124DFB21094098000020280000201D
:101DE0008C000020800000200068FEF747FA059074
:101DF000FEF775FCCDE9060105F0FEF8CDE90A0114
:101E00004FF0804160480068FEF738FA0190FEF715
:101E100066FCCDE9020105F0E3FDCDE906014FF0D6
:101E200080415A480068FEF729FA0190FEF757FCF6
:101E3000CDE9020105F0E0F8CDE90401DDE9062372
:101E4000FEF701FBCDE90801DDE90A23FEF7FBFA05
:101E5000CDE90C01DDE90E23FEF74EFACDE91001C4
:101E6000FEF780FC4A4908604FF08041494800680D
:101E7000FEF704FA0590FEF732FCCDE9060105F005
:101E8000BBF8CDE90A014FF080413F480068FEF7FA
:101E9000F5F90190FEF723FCCDE9020105F0A0FD64
:101EA000CDE906014FF0804138480068FEF7E6F9B9
:101EB0000190FEF714FCCDE9020105F091FDCDE99A
:101EC0000401DDE90623FEF7BEFACDE90801DDE9EC
:101ED0000A23FEF7B8FACDE90E014FF080412D48F4
:101EE0000068FEF7CBF90590FEF7F9FBCDE9060196
:101EF00005F076FDCDE90A014FF0804122480068E7
:101F0000FEF7BCF90190FEF7EAFBCDE9020105F00E
:101F100073F8CDE906014FF080411C480068FEF7D8
:101F2000ADF90190FEF7DBFBCDE9020105F064F8A5
:101F3000CDE90401DDE90623FEF785FACDE90801C4
:101F4000DDE90A23FEF77FFACDE90C01DDE90E2376
:101F5000FEF773FACDE91001FEF704FC0E490860A4
:101F6000FEF700FF0D4802780D4801784FF461201C
:101F700005F008FF02F026FBF021072003F0E2FC49
:101F800003F0EEFC13B000BD940000209800002088
:101F90008400002090000020880000204B000020DA
:101FA0004A0000202DE9F04F87B08C484079002886
:101FB0003ED005F033F98A480078012806D002287F
:101FC00011D003280ED004282ED12AE08548B0F97C
:101FD0000000002805DD83480088401E00B28149CA
:101FE000088000BF00BF8048B0F90000032803DB71
:101FF00003207D49088005E07B480088401C00B232
:102000007949088040217948FFF71DFB20B940211C
:102010007648FFF723FB03E040217448FFF71CFBE1
:1020200002E001F019FD00BF00BF00206B494871BC
:102030006A48007980B36A480078012806D00228EF
:102040001BD0032818D0042822D119E005F032FC57
:1020500088B120216548FFF7F6FA20B920216348AE
:10206000FFF7FCFA03E020216048FFF7F5FA60482B
:1020700000785C49088000BF00BF05F027FD07E03D
:1020800002F0A8F95B4801685BA003F08FFC00BF79
:1020900000BF0020514908715048C078C0B302F019
:1020A00099F9FEF73BFD4E49087008460078012873
:1020B00006D0022823D0032822D004282CD128E0DF
:1020C00048480088A0B101F0D5FF88B14E4800789B
:1020D00070B14E480068FEF7CFFA84B20A20009033
:1020E0004B480379827801882046FFF733F905E0F1
:1020F000002001F00BFF032001F07CFB00BF00BFBC
:1021000005F088FB04F0C6FF0A2005F08BF803E019
:1021100006E005F0CDF900BF00BF00202F49C870D0
:102120002E488078F0B32E480078012808D0022885
:1021300005D0032802D004283CD13AE000BF00BFFC
:102140002949B1F90010C1F10300FEF76BFA074607
:102150000022304BFEF7D0F80546FEF703FB04469D
:102160002D49B1F90400FEF74FFA81462A49B1F929
:102170000200FEF749FA82462749B1F90000FEF74E
:1021800043FA8346CDE903A9059402902348806869
:1021900022494968214DCDE900102B68204DAA68DD
:1021A000696800E00AE0286800F09AF8FEF7DAFDB6
:1021B00000E000BF00BF0020084988700748407851
:1021C00010B10020054948700448007810B1002083
:1021D0000249087007B0BDE8F08F000072000020CF
:1021E0006D0000207A0000207800002000180140D7
:1021F0006C000020E40300200A54696D332D43482D
:10220000313A25640A0000006E0000209C00002086
:102210006400002000000C40300000201801002065
:102220003C0100202DE9F0410446204600F022F850
:102230000546611CC8B200F01DF8064646EA0520B6
:1022400007B23846BDE8F08110B500216B2000F0E0
:1022500030F80421192000F02CF804211A2000F095
:1022600028F800211B2000F024F801211C2000F098
:1022700020F810BD70B50446FFF7F2FAD020FFF742
:10228000B7FAFFF731FB2046FFF7B2FAFFF72CFB56
:10229000FFF70AFBFFF7E4FAD120FFF7A9FAFFF7EF
:1022A00023FB0020FFF774FA0546FFF7FDFA2846E6
:1022B00070BD70B505460C46FFF7D2FAD020FFF787
:1022C00097FAFFF711FB2846FFF792FAFFF70CFB8E
:1022D0002046FFF78DFAFFF707FBFFF7E5FA70BD21
:1022E0000FB5B3B000213A98FEF758FA15D1002186
:1022F0003B98FEF753FA10D100213C98FEF74EFAB6
:102300000BD1DDE938123D98CDE90012029033A8D7
:102310000FC800F0F9FE37B000BDFE4835990068DF
:10232000FDF77AFF0E90FC4834990068FDF774FFC2
:102330000C90FA48006880F000400A903399FDF74D
:102340006BFF0B900C99FDF761FF0D900E99FDF757
:102350005DFF4FF07C510F90FDF75EFF2D90ED4833
:1023600034990068FDF758FF0E90EB4835990068E6
:10237000FDF752FF0C90EA4801683398FDF74CFFD7
:102380000B900C99FDF7F0FE0D900E99FDF73EFFB6
:102390004FF07C510F90FDF73FFF2C90DD48016816
:1023A0003398FDF739FF0E90DC4835990068FDF74A
:1023B00033FF0C90DA4834990068FDF72DFF0B903D
:1023C0000C99FDF723FF0D900E99FDF7CDFE4FF010
:1023D0007C510F90FDF720FF2B90CF480168339878
:1023E000FDF71AFF0E90CD4834990068FDF714FFF1
:1023F0000C90CB4835990068FDF70EFF0B900C99B7
:10240000FDF7B2FE0D900E99FDF700FF4FF07C51E5
:102410000F90FDF701FF2A9000213698FEF7BEF9D4
:1024200009D100213898FEF7B9F904D10021399873
:10243000FEF7B4F97ED039990846FDF7EDFE0E900F
:1024400038990846FDF7E8FE0C9036990846FDF7E6
:10245000E3FE0B900C99FDF787FE0D900E99FDF7AA
:1024600083FE0F9004F0F8FF329032993698FDF712
:10247000D3FE369032993898FDF7CEFE38903299D7
:102480003998FDF7C9FE39903C990846FDF7C4FE1E
:102490000E903B990846FDF7BFFE0C903A9908460E
:1024A000FDF7BAFE0B900C99FDF75EFE0D900E99AC
:1024B000FDF75AFE0F9004F0CFFF329032993A9810
:1024C000FDF7AAFE3A9032993B98FDF7A5FE3B90A6
:1024D00032993C98FDF7A0FE3C90914801684FF07E
:1024E0008040FDF799FE0F903A99FDF795FE2790F1
:1024F0008B4801684FF08040FDF78EFE0F903B99AE
:10250000FDF78AFE2690864801684FF08040FDF76F
:1025100083FE0F903C99FDF77FFE25907F48016870
:102520004FF08040FDF778FE0F903A99FDF774FE6A
:10253000249000E0FEE37A4801684FF08040FDF708
:102540006BFE1F90754801684FF08040FDF764FEF8
:102550001E90714801684FF08040FDF75DFE1D90B0
:102560006C4801684FF08040FDF756FE1C906C48A7
:1025700001684FF08040FDF74FFE0F9066480168FC
:102580000F98FDF749FE1B90634801684FF08040AB
:10259000FDF742FE0F905F4801680F98FDF73CFE83
:1025A0001A905F4801680068FDF736FE19905B4895
:1025B00001685B480068FDF72FFE189056480168D7
:1025C00057480068FDF728FE1790524801685448A4
:1025D0000068FDF721FE1690504801680068FDF77D
:1025E0001BFE15904C4801684C480068FDF714FE2E
:1025F00014904848016849480068FDF70DFE1390A3
:10260000454801680068FDF707FE129041480168DF
:1026100041480068FDF700FE11903E4801680068DF
:10262000FDF7FAFD109010993A98FDF7F5FD0F901F
:1026300012993A98FDF7F0FD0D903C991E98FDF720
:10264000EBFD0990334801680998FDF7E5FD0B9013
:102650003B991E98FDF7E0FD07902F480168079809
:10266000FDF7DAFD099015993A98FDF7D5FD079029
:10267000294801682598FDF7CFFD05902548016898
:102680002698FDF7C9FD039019993A98FDF7C4FD06
:1026900002900399FDF7BAFD04900599FDF764FDDA
:1026A00006900799FDF760FD08900999FDF75CFD1C
:1026B0000A900B99FDF758FD0C900D99FDF7A6FDBA
:1026C0000E900F99FDF7A2FD299010993B98FDF708
:1026D000A3FD0F903C991D98FDF79EFD0B900D48B2
:1026E00001680B98FDF798FD0D9012993B98FDF746
:1026F00093FD0B9015993B98FDF78EFD09900648C8
:1027000001682498FDF788FD079004480168259822
:1027100008E000008C0000208800002084000020D9
:1027200080000020FDF778FD059019993B98FDF792
:1027300073FD0390FE4801682798FDF76DFD029038
:102740000399FDF711FD04900599FDF75FFD0690D3
:102750000799FDF709FD08900999FDF757FD0A90C3
:102760000B99FDF701FD0C900D99FDF7FDFC0E9006
:102770000F99FDF74BFD289028990846FDF74CFD71
:102780000A9029990846FDF747FD09900A99FDF737
:10279000EBFC0B90FDF7A3FFCDE90C0105F070F900
:1027A000CDE90E01FDF7DEFF239010993C98FDF76F
:1027B00033FD0F9012993C98FDF72EFD0D903B993B
:1027C0001D98FDF729FD0990D94801680998FDF782
:1027D00023FD0B9015993C98FDF71EFD0990D448F8
:1027E00001682498FDF718FD079019993C98FDF7AA
:1027F00013FD0590CF4801682698FDF70DFD039065
:10280000279880F000400190CB4801680198FDF7BF
:1028100003FD02900399FDF7A7FC04900599FDF7CD
:10282000A3FC06900799FDF79FFC08900999FDF716
:10283000EDFC0A900B99FDF797FC0C900D99FDF7B4
:10284000E5FC0E900F99FDF78FFC22904FF0804031
:102850002399FDF7E1FC21904FF080402299FDF78C
:10286000DBFC20904FF07C501599FDF7CFFC0790D2
:102870001299FDF7CBFC08902299FDF7CDFC0A9048
:1028800013991798FDF770FC08902399FDF7C4FC85
:1028900009900A99FDF768FC0B903C99FDF7B6FC8E
:1028A0000D90A54801682398FDF7B6FC0C900D9992
:1028B000FDF7B2FC0F9011991898FDF755FC0690A2
:1028C0002299FDF7A9FC089016991498FDF79EFC33
:1028D00006902399FDF7A0FC07900899FDF744FCAA
:1028E00009903B99FDF792FC0B9092480168229861
:1028F000FDF792FC0990239880F0004007908C48E7
:1029000001680798FDF788FC08900999FDF72CFCF1
:102910000A900B99FDF780FC0D9017991398FDF71D
:1029200075FC04902299FDF777FC06904FF07C50DF
:102930001299FDF76BFC03901099FDF767FC04906A
:102940002399FDF769FC05900699FDF70DFC0790AA
:102950003A99FDF75BFC0990774801682298FDF7EA
:102960005BFC08900999FDF757FC0B904FF08040F5
:102970001899FDF751FC05901A99FDF7F5FB0690A3
:102980003899FDF743FC07901E99FDF745FC099027
:102990004FF080401399FDF73FFC04901B99FDF721
:1029A00035FC05903699FDF731FC07901D9880F0B5
:1029B000004006900799FDF72FFC08900999FDF754
:1029C000D3FB0A900B99FDF721FC0C900D99FDF7B4
:1029D000CBFB0E900F99FDF7C7FB31904FF07C5069
:1029E0001599FDF713FC07901299FDF70FFC08905D
:1029F0002299FDF711FC0A9013991798FDF7B4FB83
:102A000008902399FDF708FC09900A99FDF7ACFBA3
:102A10000B903C99FDF7FAFB0D9046480168209811
:102A2000FDF7FAFB0B90424801682398FDF7F4FB91
:102A30000A900B99FDF7EAFB0C900D99FDF7ECFB62
:102A40000F9011991898FDF78FFB06902299FDF7CA
:102A5000E3FB089016991498FDF7D8FB069023998C
:102A6000FDF7DAFB07900899FDF77EFB09903B998B
:102A7000FDF7CCFB0B90314801682298FDF7CCFBA9
:102A800009902D4801682398FDF7C6FB0890099925
:102A9000FDF76AFB0A900B99FDF7BEFB0D901799A5
:102AA0001398FDF7B3FB04902299FDF7B5FB069050
:102AB0004FF07C501299FDF7A9FB03901099FDF798
:102AC000A5FB04902399FDF7A7FB05900699FDF758
:102AD0004BFB07903A99FDF799FB09901448016860
:102AE0002298FDF799FB08900999FDF795FB0B904B
:102AF0004FF080401299FDF78FFB04904FF080401B
:102B00001599FDF789FB4FF07E510290FDF781FB8F
:102B100003900499FDF77AFB05903999FDF776FB50
:102B20000790044801684FF08140FDF775FB07E00E
:102B30008C000020840000208800002080000020FD
:102B400006900799FDF768FB09904FF080401899AF
:102B5000FDF762FB03901A99FDF706FB0490389984
:102B6000FDF754FB05901F99FDF756FB07904FF0BA
:102B700080401399FDF750FB03901B99FDF746FB2E
:102B800004903699FDF742FB05901C99FDF744FB34
:102B900006900799FDF7E8FA08900999FDF736FBCA
:102BA0000A900B99FDF7E0FA0C900D99FDF7DCFA0D
:102BB0000E900F99FDF7D8FA30904FF07C50159990
:102BC000FDF724FB07901299FDF720FB089022994E
:102BD000FDF722FB0A9013991798FDF7C5FA0890A4
:102BE0002399FDF719FB09900A99FDF7BDFA0B909F
:102BF0003C99FDF70BFB0D90FE4801682098FDF70E
:102C00000BFB0B90FC4801682398FDF705FB0A902D
:102C10000B99FDF7FBFA0C900D99FDF7FDFA0F905B
:102C200011991898FDF7A0FA06902299FDF7F4FA89
:102C3000089016991498FDF7E9FA06902399FDF784
:102C4000EBFA07900899FDF78FFA09903B99FDF789
:102C5000DDFA0B90E94801682298FDF7DDFA09904A
:102C6000E74801682398FDF7D7FA08900999FDF71E
:102C70007BFA0A900B99FDF7CFFA0D9017991398EC
:102C8000FDF7C4FA04902299FDF7C6FA06904FF0BA
:102C90007C501299FDF7BAFA03901099FDF7B6FA35
:102CA00004902399FDF7B8FA05900699FDF75CFAB0
:102CB00007903A99FDF7AAFA0990CF48016822983F
:102CC000FDF7AAFA0790219880F000400590C948C6
:102CD00001680598FDF7A0FA06900799FDF796FAA6
:102CE00008900999FDF798FA0B904FF080401299DF
:102CF000FDF792FA04904FF080401599FDF78CFA99
:102D00004FF07E510290FDF784FA03900499FDF78D
:102D10007DFA05903999FDF779FA0790B548016871
:102D20004FF08140FDF778FA06900799FDF774FAA5
:102D3000099000E05CE14FF080401899FDF76CFAD3
:102D400003901A99FDF710FA04903899FDF75EFA8E
:102D500005901C99FDF760FA07904FF08040139999
:102D6000FDF75AFA02901B99FDF750FA0390369935
:102D7000FDF74CFA05901F9880F0004004900599EB
:102D8000FDF74AFA06900799FDF7EEF908900999C0
:102D9000FDF73CFA0A900B99FDF7E6F90C900D99B6
:102DA000FDF7E2F90E900F99FDF7DEF92F904FF045
:102DB0007C501599FDF72AFA07901299FDF726FA2B
:102DC00008902299FDF728FA0A9013991798FDF7B1
:102DD000CBF908902399FDF71FFA09900A99FDF79E
:102DE000C3F90B903C99FDF711FA0D9084480168E6
:102DF0002398FDF711FA0C900D99FDF70DFA0F903D
:102E000011991898FDF7B0F906902299FDF704FA88
:102E1000089016991498FDF7F9F906902399FDF793
:102E2000FBF907900899FDF79FF909903B99FDF789
:102E3000EDF90B906F4801682298FDF7EDF90990C4
:102E4000239880F0004007906B4801680798FDF7D1
:102E5000E3F908900999FDF787F90A900B99FDF7B6
:102E6000DBF90D9017991398FDF7D0F9049022998A
:102E7000FDF7D2F906904FF07C501299FDF7C6F994
:102E800003901099FDF7C2F904902399FDF7C4F956
:102E900005900699FDF768F907903A99FDF7B6F99C
:102EA0000990574801682298FDF7B6F907902198D4
:102EB00080F000400590514801680598FDF7ACF995
:102EC00006900799FDF750F908900999FDF7A4F9C4
:102ED0000B904FF080401899FDF79EF905901A99D4
:102EE000FDF742F906903899FDF790F907901D9982
:102EF000FDF792F909904FF080401399FDF78CF996
:102F000005901B99FDF782F906903699FDF77EF939
:102F100007901E99FDF780F908900999FDF724F9AB
:102F20000A900B99FDF720F90C900D99FDF71CF90B
:102F30000E900F99FDF718F92E902E990846FDF77F
:102F40006BF90E902F990846FDF766F90C903099B1
:102F50000846FDF761F90A9031990846FDF75CF9DA
:102F600009900A99FDF700F90B900C99FDF7FCF810
:102F70000D900E99FDF7F8F80F9004F06DFA32906D
:102F8000DDE93101FDF748F9319032993098FDF7CC
:102F900043F9309032992F98FDF73EF92F903299EE
:102FA0002E98FDF739F92E9031993D98FDF734F9B7
:102FB0000F902D99FDF72DF92D9030993D98FDF743
:102FC0002BF90F902C99FDF724F92C902F993D980F
:102FD000FDF722F90F902B99FDF71BF92B902E99F5
:102FE0003D98FDF719F90F902A99FDF712F92A90EB
:102FF000044909E088000020800000208C000020A7
:10300000840000200AD7A33C2D98FDF705F90F9006
:10301000384801680F98FDF7A7F836490860364927
:103020002C98FDF7F9F80F90344801680F98FDF7D8
:103030009BF83249086030492B98FDF7EDF80F9066
:103040002F4801680F98FDF78FF82D4908602A492D
:103050002A98FDF7E1F80F902A4801680F98FDF7CC
:1030600083F828490860084601680068FDF7D4F82D
:103070000E90234801680068FDF7CEF80C901F48B9
:1030800001680068FDF7C8F80A901A4801680068EE
:10309000FDF7C2F809900A99FDF766F80B900C99B4
:1030A000FDF762F80D900E99FDF75EF80F9004F0B1
:1030B000D3F932900F4832990068FDF7ADF80D4909
:1030C00008600E4832990068FDF7A6F80B490860C1
:1030D0000B4832990068FDF79FF8094908600948D4
:1030E00032990068FDF798F80649086000BFFFF7BD
:1030F00012B90000800000200AD7A33C8400002001
:10310000880000208C0000200FB5A5B0FE4827994C
:103110000068FDF781F80D90FC4826990068FDF7DE
:103120007BF80B90FA48006880F0004009902599E0
:10313000FDF772F80A900B99FDF768F80C900D995D
:10314000FDF764F84FF07C510E90FDF765F81F9085
:10315000ED4826990068FDF75FF80D90EB48279938
:103160000068FDF759F80B90EA4801682598FDF7CB
:1031700053F80A900B99FCF7F7FF0C900D99FDF7A7
:1031800045F84FF07C510E90FDF746F81E90DE4852
:1031900001682598FDF740F80D90DD4827990068F3
:1031A000FDF73AF80B90DB4826990068FDF734F8F4
:1031B0000A900B99FDF72AF80C900D99FCF7D4FFB3
:1031C0004FF07C510E90FDF727F81D90CF48016815
:1031D0002598FDF721F80D90CD4826990068FDF758
:1031E0001BF80B90CB4827990068FDF715F80A905B
:1031F0000B99FCF7B9FF0C900D99FDF707F84FF00C
:103200007C510E90FDF708F81C9000212898FDF7DE
:10321000C5FA09D100212A98FDF7C0FA04D100218E
:103220002B98FDF7BBFA7DD02B990846FCF7F4FFED
:103230000D902A990846FCF7EFFF0B902899084655
:10324000FCF7EAFF0A900B99FCF78EFF0C900D99A2
:10325000FCF78AFF0E9004F0FFF824902499289838
:10326000FCF7DAFF289024992A98FCF7D5FF2A90DA
:1032700024992B98FCF7D0FF2B90A64801684FF0BB
:103280008040FCF7C9FF1B90A14801684FF08040C7
:10329000FCF7C2FF1A909D4801684FF08040FCF790
:1032A000BBFF1990984801684FF08040FCF7B4FFCD
:1032B0001890984801684FF08140FCF7ADFF1790D7
:1032C000934801684FF08140FCF7A6FF16908F48A5
:1032D00001684FF08140FCF79FFF15908C48016812
:1032E0004FF08240FCF798FF1490884801684FF037
:1032F0008240FCF791FF1390864801680068FCF754
:103300008BFF1290824801680068FCF785FF1190DE
:103310007E4801680068FCF77FFF10907A480168DA
:10332000006800E040E1FCF777FF0F902A991A98B7
:10333000FCF772FF0E9011991798FCF76DFF0C9037
:1033400028991998FCF768FF0A9010991798FCF7CC
:1033500063FF09900A99FCF707FF0B900C99FCF7A3
:1033600003FF0D900E99FCF751FF23902B991698AF
:10337000FCF752FF0E9010991498FCF74DFF0C903B
:1033800011991498FCF748FF0A902A991B98FCF7AA
:1033900043FF07904FF081401299FCF73DFF0390E7
:1033A0005B4801680398FCF737FF05902899189847
:1033B000FCF732FF03900F991698FCF72DFF02904F
:1033C0000399FCF723FF04900599FCF7CDFE0690C6
:1033D0000799FCF71BFF08901699FCF717FF099057
:1033E0000A99FCF7C1FE0B900C99FCF7BDFE0D90FD
:1033F0000E99FCF7B9FE22902B991598FCF70CFF5B
:103400000E9010991398FCF707FF0C9011991398E0
:10341000FCF702FF0A902A991898FCF7FDFE079026
:103420000F991598FCF7F8FE059028991B98FCF762
:10343000F3FE03904FF081401299FCF7EDFE0190EE
:10344000324801680198FCF7E7FE02900399FCF707
:103450008BFE04900599FCF787FE06900799FCF710
:10346000D5FE08901599FCF7D1FE09900A99FCF752
:103470007BFE0B900C99FCF777FE0D900E99FCF7F4
:1034800073FE21902A991998FCF7C6FE0E904FF012
:1034900081401099FCF7C0FE0A901B4801680A9809
:1034A000FCF7BAFE0C9028991A98FCF7B5FE0A9022
:1034B0004FF081401199FCF7AFFE08901248016867
:1034C0000898FCF7A9FE09900A99FCF79FFE0B905B
:1034D0000C99FCF749FE0D900E99FCF797FE209091
:1034E00020990846FCF798FE0D9021990846FCF7B4
:1034F00093FE0B9022990846FCF78EFE09902399C3
:103500000846FCF789FE07E08C00002088000020B8
:10351000840000208000002008900999FCF724FE18
:103520000A900B99FCF720FE0C900D99FCF71CFEFD
:103530000E9003F091FF2490DDE92301FCF76CFE6F
:10354000239024992298FCF767FE229024992198D1
:10355000FCF762FE219024992098FCF75DFE2090F4
:1035600023992C98FCF758FE0E901F99FCF751FEFA
:103570001F9022992C98FCF74FFE0E901E99FCF795
:1035800048FE1E9021992C98FCF746FE0E901D993E
:10359000FCF73FFE1D9020992C98FCF73DFE0E9005
:1035A0001C99FCF736FE1C903A491F98FCF734FE34
:1035B0000E90394801680E98FCF7D6FD3649086030
:1035C00034491E98FCF728FE0E90344801680E9886
:1035D000FCF7CAFD314908602E491D98FCF71CFE16
:1035E0000E902F4801680E98FCF7BEFD2C4908602C
:1035F00028491C98FCF710FE0E902A4801680E9886
:10360000FCF7B2FD27490860084601680068FCF72E
:1036100003FE0D90224801680068FCF7FDFD0B9049
:103620001E4801680068FCF7F7FD09901A48016818
:103630000068FCF7F1FD08900999FCF795FD0A90E8
:103640000B99FCF791FD0C900D99FCF78DFD0E90F8
:1036500003F002FF2490104824990068FCF7DCFD79
:103660000D4908600D4824990068FCF7D5FD0B4909
:1036700008600B4824990068FCF7CEFD08490860F3
:10368000084824990068FCF7C7FD0649086029B07E
:1036900000BD00000AD7A33C800000208400002069
:1036A000880000208C00002000BFFEE72DE9F74FC6
:1036B00084B08A461646424C25464FF000094148E0
:1036C00080F8009000213046FDF772F801D2012009
:1036D00000E00020814631460498FCF797FD04463F
:1036E00031465046FCF792FD054600212046FDF785
:1036F00055F802D284F0004700E027460021284612
:10370000FDF74CF802D285F0004800E0A8462D48AD
:10371000007848450FD000202B4908602B490860ED
:10372000B9F1000F03D12A482A4908600DE02A4860
:103730002849086009E041463846FDF739F802D8C3
:103740002448046001E023480560224801682348BA
:10375000FCF762FD03901D4801681E480068FCF7F5
:1037600055FD1F490190FCF757FD02900399FCF7A6
:10377000FBFC8346144801685846FCF7F5FC1249E7
:103780000860184910480068FDF712F803D8164879
:103790000D49086008E015490B480068FCF7FEFF7A
:1037A00002D81348084908600A48006807490860B9
:1037B00005480068FCF747FF07B0BDE8F08F000040
:1037C00000003041C4000020C0000020BC000020E8
:1037D000000020C1B800002000002041000060C0AF
:1037E0000000404100007F4300007E4300007FC393
:1037F00000007EC310B50446012C02D0022C0AD171
:1038000004E003210948FDF727FF0DE00C210748DC
:10381000FDF722FF08E003210448FDF71DFF0C21FE
:103820000248FDF719FF00BF00BF10BD001801409E
:103830002DE9F04704460D464FF4C876FF2096FB6D
:10384000F0F000FB15601FFA80F92846FCF7EAFE4D
:103850000746394A394BFCF76DFF26D2022138481A
:10386000FDF7FAFE01213648FDF7F8FE082134483D
:10387000FDF7F2FE04213248FDF7F0FE022C04D1E0
:103880004946304801F0FCFC53E0012C04D1494684
:103890002C4801F0F7FC4CE049462A4801F0F0FCC6
:1038A0004946284801F0EEFC43E02846FCF7BAFE02
:1038B0000746214A244BFCF73DFF0CD82846FCF76D
:1038C000B1FE07461C4A1D4BFCF71CFF03D8032022
:1038D000FFF790FF2DE0FF2096FBF0F0694200FB20
:1038E00011601FFA80F901211548FDF7B5FE02218C
:1038F0001348FDF7B3FE04211148FDF7ADFE082182
:103900000F48FDF7ABFE022C04D149460D4801F0EB
:10391000B7FC0EE0012C04D149460A4801F0B2FC84
:1039200007E04946074801F0ABFC4946054801F06D
:10393000A9FCBDE8F08700009A9999999999C93F27
:1039400000180140003401409999C9BF08B5012110
:10395000402000F0D5F810208DF8030003208DF8EA
:1039600002000120ADF8000069461148FDF7E0FDB6
:103970000220ADF8000069460D48FDF7D9FD04208E
:10398000ADF8000069460A48FDF7D2FD0820ADF801
:10399000000069460648FDF7CBFDFDF723FCFDF767
:1039A0007DFC40F60F614FF4C87001F001F908BDCD
:1039B000001801407047000070B5002100230F225D
:1039C000C47804B3154C246804F4E064C4F5E064DE
:1039D000210AC1F10403CA40447804FA03F184784F
:1039E0001440214309010E4C0678A155047804F0D7
:1039F0001F050124AC4005786D11AD0005F1E025EF
:103A0000C5F8004109E0047804F01F050124AC402A
:103A1000044D0678761145F8264070BD0CED00E0A7
:103A200000E400E080E100E002490143024A116045
:103A3000704700000000FA050CED00E078B5044680
:103A40002646002504E0684600F01CFA681CC5B252
:103A5000B542F8DB78BD704710B5044883784268FA
:103A6000816803A001F0A2FF10BD0000E800002063
:103A70003D3D3D3D3D475053CAFDBEDD3D3D3D3DD5
:103A80003D0A09090909094C6F6E673A2564204C03
:103A900061743A25642073756D53563A25640000AD
:103AA00029B1064A52690243044B5A6104E0034AB1
:103AB00052698243014B5A61704700000010024076
:103AC00029B1064AD2690243044BDA6104E0034A91
:103AD000D2698243014BDA61704700000010024056
:103AE00029B1064A12690243044B1A6104E0034AF1
:103AF00012698243014B1A617047000000100240B6
:103B000029B1064A92690243044B9A6104E0034AD0
:103B100092698243014B9A61704700000010024095
:103B200029B1064AD2680243044BDA6004E0034A32
:103B3000D2688243014BDA607047000000100240F7
:103B400030B500210022002400232D4D6D6805F0C2
:103B50000C0121B1042905D0082923D105E0294D04
:103B6000056022E0274D05601FE0254D6D6805F4D6
:103B70007012234D6D6805F48034022505EB9242E6
:103B80001CB9214D554305600BE01D4D6D6805F4D2
:103B900000351DB11C4D5543056002E0194D5543DC
:103BA000056002E0174D056000BF00BF144D6D6851
:103BB00005F0F0010909154D6B5C0568DD404560B5
:103BC0000F4D6D6805F4E061090A104D6B5C4568A6
:103BD000DD4085600A4D6D6805F46051C90A0B4DE2
:103BE0006B5C4568DD40C560054D6D6805F440417E
:103BF000890B074D6B5CC568B5FBF3F5056130BDFE
:103C00000010024000127A0000093D000000002070
:103C10001000002010B54FF480610248FDF713FD3D
:103C200010BD00000014014030B50446012C02D044
:103C3000022C20D10FE04FF08040818C0088C0F32F
:103C4000001303B901E0A1F5C36100204FF08045E6
:103C5000A884084630BD09480288084824380088EE
:103C6000C0F3001303B901E0A2F5C3620020034DC5
:103C700028801046EEE7FF20ECE700002408004013
:103C80002DE9F04F87B04FF07E5005900020049052
:103C9000002201212B4801F0B6F90220FFF7C4FFF2
:103CA000039029480068FCF7BDFC0646274A284BCC
:103CB000FCF7C9FB0446FCF755FD049001221146B0
:103CC000204801F0A0F90020224908700398FCF771
:103CD000A9FC8246204A214BFCF7B5FB06460F465D
:103CE0000498FCF7FCFC804632463B46FCF704FB9C
:103CF0000446FCF737FD04900498FCF7F0FC134AE7
:103D0000134BCDE90001FCF710FC06460022144BD2
:103D1000FCF799FB8046FCF725FD0290FCF7DFFCE1
:103D2000044600224FF08043FCF78DFB8246FCF7EF
:103D300019FD0590002004490860059807B0BDE80A
:103D4000F08F0000000800403C0000204AD8124DCF
:103D5000FB21094044000020165CE2DF547F603FF5
:103D600000001A402DE9F04F87B04FF07E500590CB
:103D70000020049000220121880701F044F901206D
:103D8000FFF752FF039028480068FCF74BFC0646FB
:103D9000264A274BFCF757FB0446FCF7E3FC04904C
:103DA00001221146900701F02EF9002021490870E8
:103DB0000398FCF737FC82461F4A204BFCF743FB75
:103DC00006460F460498FCF78AFC804632463B467E
:103DD000FCF792FA0446FCF7C5FC04900498FCF743
:103DE0007EFC124A124BCDE90001FCF79EFB064611
:103DF0000022134BFCF727FB8046FCF7B3FC029034
:103E0000FCF76DFC044600224FF08043FCF71BFBDF
:103E10008246FCF7A7FC059000200349086005983E
:103E200007B0BDE8F08F0000400000204AD8124DD6
:103E3000FB21094045000020165CE2DF547F603F13
:103E400000001A4001460D48808808B900207047DC
:103E50000A480288801D805C087008480088401C61
:103E6000074A128890FBF2F302FB1300034A10800A
:103E700010468088401E90800120E8E7140300204F
:103E80007C00002001460D48808808B9002070475A
:103E90000A480288801D805C087008480088401C21
:103EA000074A128890FBF2F302FB1300034A1080CA
:103EB00010468088401E90800120E8E778010020AD
:103EC0007C00002008B54FF40060ADF800004820E9
:103ED0008DF8030069460248FDF72AFB08BD000083
:103EE0000010014008B54FF40060ADF8000010204C
:103EF0008DF8030003208DF8020069460148FDF7A4
:103F000017FB08BD00100140704700002DE9F04785
:103F100004464FF00009412C01DD412404E014F176
:103F2000410F01DA6FF040042046FCF77BFB0746A7
:103F3000114A124BFCF787FA0546FCF713FC814641
:103F40000F494846FCF734FC02D2DFF8349006E013
:103F50000C494846FCF722FC01D2DFF8289048467D
:103F6000FCF771FB1930C0F5C97085B229460648C7
:103F700001F08AF9BDE8F0878B6CE7FBA9F1C23F3D
:103F800000007041000070C10034014010B500F025
:103F900001F810BD0CB50020019000903348006876
:103FA00040F480303149086000BF3048006800F4B8
:103FB000003000900198401C0190009818B90198B9
:103FC000B0F5A06FF1D12948006800F4003010B1BD
:103FD0000120009001E0002000900098012843D1CA
:103FE0002348006840F01000214908600846006836
:103FF00020F0030008600846006840F002000860F6
:104000001A484068194948600846406848600846B0
:10401000406840F4806048600846406820F47C10A6
:1040200048600846406840F4E81048600846006868
:1040300040F08070086000BF0C48006800F000701D
:104040000028F9D00948406820F00300074948607B
:104050000846406840F00200486000BF03484068DE
:1040600000F00C000828F9D10CBD0000001002403F
:10407000002002400148007870470000E80000205E
:10408000042808D14FF0E021096941F004014FF004
:10409000E022116107E04FF0E021096921F00401FD
:1040A0004FF0E022116170477047000010B51348CF
:1040B000006840F001001149086008464068104956
:1040C00008400E494860084600680E4908400B4900
:1040D00008600846006820F48020086008464068B0
:1040E00020F4FE0048604FF41F008860FFF74EFF89
:1040F0004FF000600449086010BD0000001002404D
:104100000000FFF8FFFFF6FE08ED00E0F0B50C46FA
:10411000154600220021068C4FF6FE773E400684AD
:10412000028B018C4FF60C7632407E1C06EA031699
:104130002E433243104EB0420ED0104EB0420BD040
:10414000B0F1804F08D00E4EB04205D00D4EB042B7
:1041500002D00D4EB04206D14FF6FD76314044F00C
:104160000106314305E04FF6F576314044F0010693
:10417000314302830184F0BD002C01400034014032
:104180000004004000080040000C0040F0B50C4660
:104190001546002200210026078C4FF6EF7C07EA27
:1041A0000C070784028B018C4FF6FF7707EA041691
:1041B00040F6FF473A404FF6FF7707EA03373A43A6
:1041C0004FF6FF7707EA05273A43114FB8420ED062
:1041D000104FB8420BD0B0F1804F08D00E4FB8420C
:1041E00005D00E4FB84202D00D4FB84206D14FF65F
:1041F000DF77394046F01007394305E04FF65F7727
:10420000394044F01007394302830184F0BD0000B7
:10421000002C014000340140000400400008004030
:10422000000C0040F0B50C46154600220021002687
:10423000078C4FF6FF6C07EA0C070784828B018C12
:104240004FF6FF7707EA04264FF60C773A404FF611
:10425000FF7707EA03172F433A43114FB8420ED0B6
:10426000104FB8420BD0B0F1804F08D00E4FB8427B
:1042700005D00E4FB84202D00D4FB84206D14FF6CE
:10428000FF57394046F48077394305E04FF2FF5736
:10429000394044F48077394382830184F0BD0000C3
:1042A000002C0140003401400004004000080040A0
:1042B000000C0040F0B50C461546002200210026F7
:1042C000078C4EF6FF7C07EA0C070784828B018C73
:1042D0004FF6FF7707EA043640F6FF473A404FF6BD
:1042E000FF7707EA05273A434FF6FF7707EA0337D8
:1042F0003A43114FB8420ED0104FB8420BD0B0F134
:10430000804F08D00E4FB84205D00E4FB84202D0B1
:104310000D4FB84206D14DF6FF77394046F480572D
:10432000394305E047F6FF57394044F48057394395
:1043300082830184F0BD0000002C01400034014064
:104340000004004000080040000C004010B54FF091
:1043500080400088C0F300101A49087008460478AD
:104360000121880700F0DEFD38B3164800781649B1
:10437000097888420BD00020144908601248007860
:10438000104908700020124908700F4804700D4849
:10439000007828B90D480068401C0C4908600CE002
:1043A0000A480068401E094908600948007808B9B1
:1043B000002008600120064908700121880700F0EC
:1043C00070FC10BD48000020470000204000002085
:1043D0004500002070B5002500216C4800F064FC09
:1043E00000221F21694800F00EFE6948008800F491
:1043F000004008B366480088C0F30D04012574B17D
:1044000064480088C0F11401601E00EB800001EBDD
:1044100080006149098808446049086014E05E48EA
:1044200000885C490988884207DB5B480088594955
:104430000988401A5949086006E0564800885649DC
:104440000988401A554908605548008800F4004022
:1044500008B353480088C0F30D04012574B15148D6
:104460000088C0F11401601E00EB800001EB8000A9
:104470004D49098808444949486014E04A48008881
:1044800048490988884207DB474800884549098828
:10449000401A4249486006E042480088424909887B
:1044A000401A3E4948604148008800F4004008B383
:1044B0003E480088C0F30D04012574B13C480088D3
:1044C000C0F11401601E00EB800001EB800039494F
:1044D000098808443149886014E036480088344926
:1044E0000988884207DB3348008831490988401A27
:1044F0002A49886006E02E4800882E490988401A1B
:10450000264988602C48008800F4004008B32A48F7
:104510000088C0F30D04012574B128480088C0F15B
:104520001401601E00EB800001EB80002449098823
:1045300008441A49C86014E0214800881F490988C6
:10454000884207DB1E4800881C490988401A134925
:10455000C86006E01948008819490988401A0F49BF
:10456000C86000200A4908800D4908800F4908806A
:10457000114908800121054800F096FB01221F2106
:10458000024800F040FD284670BD000000040040D5
:10459000C8000020D4000020D6000020E403002042
:1045A000CA000020D0000020D2000020CC00002053
:1045B000D8000020DA000020CE000020DC0000201F
:1045C000DE00002000B589B001210420FFF798FA31
:1045D00001210820FFF794FA01210220FFF770FA69
:1045E0000020ADF81A00ADF816001320ADF8180041
:1045F0004720ADF8140005A93F4800F075FE2820BB
:104600008DF823004020ADF8200008A93B48FCF7B6
:104610008FFF8020ADF8200008A93848FCF788FFFC
:104620000120ADF8200008A93548FCF781FF0220E1
:10463000ADF8200008A93248FCF77AFF0020ADF859
:104640000400ADF80C00ADF80600ADF80A0001203A
:10465000ADF8080001A9284800F076FC01220221EB
:10466000254800F0D0FC0420ADF804000020ADF88F
:104670000C00ADF80600ADF80A000120ADF8080006
:1046800001A91D4800F060FC012204211A4800F035
:10469000BAFC0820ADF8040001A9174800F054FC4A
:1046A00001220821144800F0AEFC0C20ADF80400F3
:1046B00001A9114800F048FC012210210E4800F029
:1046C000A2FC1D208DF8100002208DF811000020A2
:1046D0008DF8120001208DF8130004A8FFF76CF983
:1046E00001221F21044800F08EFC0121024800F045
:1046F000DBFA09B000BD00000004004000080140E2
:10470000000C014010B50121A74800F00BFC002867
:104710007ED0A648008800F40040E0B9A348008895
:1047200000F48040B8B1A1480088C0F30D0043F602
:10473000FF7188420AD19D48008840F400409B499F
:1047400008804FF6FF709A49088004E09748008877
:10475000401C964908809748008800F40040E0B962
:104760009448008800F48040B8B192480088C0F3B3
:104770000D0043F6FF7188420AD18E48008840F44C
:1047800000408C4908804FF6FF708B49088004E098
:1047900088480088401C874908808848008800F4C1
:1047A0000040E0B98548008800F48040B8B18348F3
:1047B0000088C0F30D0043F6FF7188420AD17F489C
:1047C000008840F400407D4908804FF6FF707C4926
:1047D000088004E079480088401C784908807948BE
:1047E000008800F4004098B97648008800F48040C2
:1047F00070B174480088C0F30D0043F6FF71884221
:104800000CD17048008840F400406E49088000E0F8
:1048100009E04FF6FF706C49088004E069480088A1
:10482000401C6849088001215F4800F03AFA0221E3
:104830005D4800F077FB48B35C48008800F4804096
:1048400078B1594800F061FB594908805748008801
:1048500040F40040554908800021534800F028FCEE
:1048600010E0514800F051FB5849088000204F49A2
:1048700008800846008840F48040088002214A48A9
:1048800000F016FC0221484800F00BFA04214648CB
:1048900000F048FB48B34748008800F4804078B1F6
:1048A000414800F035FB444908804248008840F404
:1048B00000404049088000213B4800F05DFC10E0CA
:1048C000394800F025FB424908800020394908801A
:1048D0000846008840F4804008800221324800F0F9
:1048E0004BFC0421304800F0DCF908212E4800F090
:1048F00019FB48B33148008800F4804078B12A4859
:1049000000F009FB2E4908802C48008840F4004044
:104910002A4908800021244800F098FC10E0224831
:1049200000F0F9FA2B490880002024490880084645
:10493000008840F48040088002211B4800F086FC7B
:104940000821194800F0ADF91021174800F0EAFAE3
:1049500048B31C48008800F4804078B1124800F049
:10496000DDFA194908801748008840F400401549CD
:10497000088000210C4800F076FC10E00A4800F0A6
:10498000CDFA1549088000200E49088008460088A5
:1049900040F4804008800221034800F064FC1021AC
:1049A000014800F07EF910BD00040040C80000205E
:1049B000D6000020CA000020D2000020CC00002039
:1049C000DA000020CE000020DE000020D40000200D
:1049D000D0000020D8000020DC00002010B51D48C9
:1049E0000088C0F300101C490870084604780121B3
:1049F000184800F097FA38B3174800781749097833
:104A000088420BD0002016490860144800781249EB
:104A10000870002013490870104804700E48007890
:104A200028B90F480068401C0D4908600CE00C488C
:104A30000068401E0A4908600A48007808B900204A
:104A400008600120074908700121024800F029F997
:104A500010BD000000080040490000204600002072
:104A60003C0000204400002010B50121294800F03E
:104A700059FA00284CD028480088401C2649088054
:104A8000084600880988481C00EBD0714910A0EB4B
:104A90004101B1BB20490988481CC11700EB917145
:104AA0008910A0EB810149BB1B480088401C1421E0
:104AB00090FBF1F201FB1200E8B917480088401C96
:104AC000282190FBF1F201FB120088B912480088FE
:104AD000401CC82190FBF1F201FB120028B9012013
:104AE0000E49487100200C49088001200B490871CB
:104AF00001200A49C870012008498870012007492F
:104B000048700120054908700121024800F0C9F8E9
:104B100010BD0000000C004070000020720000205A
:104B20001FB501210820FEF7CBFF1E4800F0D8F882
:104B30000020ADF80600ADF80A006420ADF80800CA
:104B400040F60F60ADF8040001A9164800F0CCFB58
:104B500001221146134800F056FA32208DF8000069
:104B600000208DF801008DF8020001208DF803006F
:104B70006846FEF721FF01210A4800F095F801215F
:104B8000084800F07FF80121064800F08DF8012068
:104B900005490880002005494871C8708870487030
:104BA00008701FBD000C0040700000207200002043
:104BB00030B589B004460D4601214803FEF7A0FF39
:104BC00001211020FEF79CFF18208DF82300032000
:104BD0008DF822004020ADF8200008A92748FCF7F6
:104BE000A7FC8020ADF8200008A92448FCF7A0FC11
:104BF0004FF48070ADF8200008A92048FCF798FC1D
:104C00001F4800F06DF80020ADF81600ADF81A004E
:104C1000ADF81840ADF8145005A9194800F064FB30
:104C20000020ADF80C006020ADF804000120ADF8C4
:104C30000600ADF80A4001A9114800F0EDF901A9FC
:104C40000F4800F047FA01A90D4800F0AFFA012122
:104C50000B4800F035F80821094800F032FA082125
:104C6000074800F096FA0121054800F00BF80121F1
:104C7000034800F019F809B030BD000000100140F1
:104C80000034014021B1028842F08002028004E039
:104C900002884FF67F731A4002807047CA4302822F
:104CA0007047CA430282704721B1028842F0010274
:104CB000028004E002884FF6FE731A4002807047BB
:104CC00031B1B0F8442042F40042A0F8442005E09D
:104CD000B0F84420C2F30E02A0F844207047000050
:104CE00010B504466848844208D10121C014FEF77B
:104CF00017FF0021E014FEF713FFC4E0B4F1804F6A
:104D000008D101210846FEF7EBFE00210120FEF745
:104D1000E7FEB8E05D48844208D101210220FEF799
:104D2000DFFE00210220FEF7DBFEACE058488442A3
:104D300008D101210420FEF7D3FE00210420FEF754
:104D4000CFFEA0E05348844208D101210820FEF79D
:104D5000C7FE00210820FEF7C3FE94E04E488442BF
:104D600008D101211020FEF7BBFE00211020FEF724
:104D7000B7FE88E04948844208D101212020FEF78F
:104D8000AFFE00212020FEF7ABFE7CE044488442C9
:104D900008D101214014FEF7C3FE00216014FEF784
:104DA000BFFE70E03F48844209D10121C804FEF7EC
:104DB000B7FE00214FF40020FEF7B2FE63E03A4850
:104DC000844209D101210805FEF7AAFE00214FF413
:104DD0008010FEF7A5FE56E03448844209D1012137
:104DE0004805FEF79DFE00214FF40010FEF798FEE7
:104DF00049E02F48844208D101214020FEF770FE8F
:104E000000214020FEF76CFE3DE02A48844208D194
:104E100001218020FEF764FE00218020FEF760FE65
:104E200031E02548844208D101218015FEF758FE63
:104E30000021A015FEF754FE25E02048844209D148
:104E400001210804FEF76CFE00214FF48030FEF7CC
:104E500067FE18E01A48844209D101214804FEF790
:104E60005FFE00214FF40030FEF75AFE0BE01548BC
:104E7000844208D101218804FEF752FE00214FF43C
:104E80008020FEF74DFE10BD002C014000040040C4
:104E900000080040000C00400010004000140040DA
:104EA00000340140004C01400050014000540140DA
:104EB00000180040001C004000200040004001405D
:104EC0000044014000480140F0B50C4615461E461E
:104ED0000021002200230189028B038C4FF6F87712
:104EE000394021434FF6FC473A4040F201173A431C
:104EF0004FF6DD773B404FF6FF7707EA06172F4363
:104F00003B43018102830384F0BD0146888E7047D4
:104F10000146088F70470146888F70470146B1F8F7
:104F20004000704730B50246002000230024158A57
:104F300005EA0103958905EA010413B10CB10120CA
:104F400000E0002030BD000070B505460C46244846
:104F500085420ED0234885420BD0B5F1804F08D052
:104F60002148854205D02148854202D0204885420B
:104F700000D100E000BF208850B92389A288618851
:104F80002846FFF7C3F8E188284600F081F925E0BC
:104F9000208804280AD12389A28861882846FFF73F
:104FA000F5F8E188284600F07CF917E02088082809
:104FB0000AD12389A28861882846FFF733F9E1885E
:104FC000284600F07BF909E02389A28861882846F9
:104FD000FFF770F9E188284600F079F970BD00000C
:104FE000002C014000340140000400400008004053
:104FF000000C0040002101804180012181800021BE
:10500000C180018170471AB183890B43838102E01B
:1050100083898B438381704770B50024002200236D
:10502000058C4FF6FE7635400584028C8388048B10
:105030004FF68F752C40B51E2C400D882C43751EE5
:105040002A400D892A434D882A43144DA8420BD08B
:10505000134DA84208D0134DA84205D0124DA842C6
:1050600002D0124DA84213D14FF6F7752A404D8950
:105070002A434FF6FB752A408D882A434FF6FF6579
:105080002B404FF6FF552B408D892B43CD892B4369
:1050900083800483CD888586028470BD002C014006
:1050A00000340140004001400044014000480140FC
:1050B0000A460021018C4FF6FD731940114301840B
:1050C00070470A460021018B4FF6F77319401143D0
:1050D0000183704770B5002400220023058C4FF631
:1050E000EF7635400584028C8388048B48F6FF7583
:1050F0002C404FF6FF452C400D884FF6FF7606EA10
:1051000005252C434FF6DF752A400D8906EA051563
:105110002A434D8806EA05152A43154DA84202D0B8
:10512000144DA8421DD14FF67F752A404D894FF688
:10513000FF7606EA05152A434FF6BF752A408D888B
:1051400006EA05152A434FF6FF352B404FF2FF754F
:105150002B408D8906EA85052B43CD8906EA850516
:105160002B4383800483CD880587028470BD0000B3
:10517000002C0140003401400A460021018C4FF60A
:10518000DF7319404FF6FF7303EA021319430184DA
:1051900070470A460021018B4FF2FF7319404FF60A
:1051A000FF7303EA022319430183704770B500249B
:1051B00000220023058C4FF6FF6635400584028CE3
:1051C0008388848B4FF68F752C404FF6FC752C40EE
:1051D0000D882C434FF6FF552A400D894FF6FF7678
:1051E00006EA05252A434D8806EA05252A43154D7A
:1051F000A84202D0144DA8421DD14FF2FF752A409B
:105200004D894FF6FF7606EA05252A434FF6FF350E
:105210002A408D8806EA05252A434EF6FF752B4065
:105220004DF6FF752B408D8906EA05152B43CD8978
:1052300006EA05152B4383808483CD888587028405
:1052400070BD0000002C0140003401400A460021DE
:10525000018C4FF6FF5319404FF6FF7303EA022308
:105260001943018470470A460021018C4DF6FF73F3
:1052700019404FF6FF7303EA023319430184704764
:1052800081867047018770478187704781847047A6
:10529000028B4FF6F3731A400283028B0A43028398
:1052A0007047028B4FF2FF331A400283028B4FF696
:1052B000FF7303EA01231A4302837047828B4FF680
:1052C000F3731A408283828B0A4382837047828BF6
:1052D0004FF2FF331A408283828B4FF6FF7303EA4B
:1052E00001231A4382837047002202881D4B984293
:1052F0000ED01D4B98420BD0B0F1804F08D01B4B05
:10530000984205D01A4B984202D01A4B984204D1C9
:105310004FF68F731A404B881A43174B984207D0A9
:10532000164B984204D04FF6FF431A40CB881A43DD
:1053300002808B8883850B8803850A4B98420BD0AB
:10534000094B984208D00E4B984205D00D4B98421D
:1053500002D00D4B984201D10B7A03860123838240
:1053600070470000002C0140003401400004004060
:1053700000080040000C00400010004000140040F5
:105380000040014000440140004801404FF6FF71D9
:10539000818000210180C18041800172704700003E
:1053A00070B500250A20FCF76BF91025002408E0F1
:1053B0000649085DFCF764F908B9002070BD601C5F
:1053C000C4B2AC42F4DB0120F8E70000727F0008B1
:1053D00070B500250A20FCF753F9002070B92C2580
:1053E000002408E00E49085DFCF74AF908B90020DE
:1053F00070BD601CC4B2AC42F4DB0EE02C2500246E
:1054000008E00849085DFCF73BF908B90020EFE720
:10541000601CC4B2AC42F4DB00BF00BF0120E7E770
:10542000467F00081A7F000870B500250A20FCF7A7
:1054300027F90E25002408E00649085DFCF720F94D
:1054400008B9002070BD601CC4B2AC42F4DB01207E
:10545000F8E700000C7F000870B5064600250A201A
:10546000FCF70EF9B6F5E13F06D0B6F5E12F23D0F3
:10547000B6F5612F30D10FE01C25002408E0174954
:10548000085DFCF7FDF808B9002070BD601CC4B2CF
:10549000AC42F4DB0120F8E71C25002408E01049A9
:1054A000085DFCF7EDF808B90020EEE7601CC4B217
:1054B000AC42F4DB0120E8E71C25002408E00949A0
:1054C000085DFCF7DDF808B90020DEE7601CC4B217
:1054D000AC42F4DB0120D8E70020D6E7E27E0008EA
:1054E000AA7E0008C67E000810B5044600210648C2
:1054F000FBF768FD21460448FBF74EFE01210248F8
:10550000FBF760FD10BD00004400024010B540F202
:1055100025510E4800F0F3F858B10C4800F0AAF9F4
:10552000C4B2204600F020FA40F22551074800F0AE
:1055300066F80821054800F0D5F830B1034800F0BE
:1055400099F90821014800F051F810BD00380140D8
:1055500010B540F22441214800F0D1F888B320482A
:10556000FBF7E2FD1F490988081A1F49898808448A
:105570001D4988801A48FBF7D7FD1A490988081A7F
:1055800019494988084418494880084640881549FF
:10559000098890FBF1F201FB1200134948800021B9
:1055A0000F48FBF70FFD02F035F80E4800880C4954
:1055B0003039486301210A48FBF704FD074800F031
:1055C00059F90821054800F08DF830B1034800F082
:1055D00051F90821014800F009F810BD00480040C9
:1055E000300002407C0000207801002001F40072AD
:1055F000B2F5007F00D100BFCA430280704710B5EA
:105600000022002340F66A14A14200D100BF0A1212
:1056100001249440A3B2DC43048010BD21B18289EF
:1056200042F40052828104E082894DF6FF731A40F1
:10563000828170471AB1838A0B43838202E0838A96
:105640008B4383827047000010B504462048844293
:1056500009D101218803FEF763FA00214FF480404D
:10566000FEF75EFA32E01B48844209D1012148046A
:10567000FEF736FA00214FF40030FEF731FA25E04C
:105680001548844209D101218804FEF729FA002136
:105690004FF48020FEF724FA18E01048844209D124
:1056A0000121C804FEF71CFA00214FF40020FEF788
:1056B00017FA0BE00A48844208D101210805FEF7D9
:1056C0000FFA00214FF48010FEF70AFA10BD000017
:1056D000003801400044004000480040004C0040B9
:1056E0000050004002460020B1F5007F00D100BF0D
:1056F00013880B400BB1012000E00020704770B50B
:105700000246002400230025002040F66A16B1421C
:1057100000D100BFC1F3421501F01F03012606FAB4
:1057200003F3012D02D19689334006E0022D02D108
:10573000168A334001E0968A33400C12012606FA9D
:1057400004F41688344013B10CB1012000E00020AD
:1057500070BDF0B50346002400260025002040F669
:105760006A17B94200D100BF1846C1F3421401F0D4
:105770001F06012707FA06F5012C01D10C3004E0C1
:10578000022C01D1103000E014301AB107682F4309
:10579000076002E00768AF430760F0BD2DE9F047FE
:1057A00086B005460E460024A24600BFA14600274B
:1057B000B08900B100BF2F462C8A4CF6FF70044020
:1057C000F08804432C82AC894EF6F3100440B08874
:1057D00031890843718908430443AC81AC8A4FF690
:1057E000FF400440B0890443AC8201A8FEF7A8F949
:1057F0001F48874202D1DDF810A001E0DDF80CA0BF
:10580000A88900F4004040B10AEBCA0000EB0A107E
:1058100031684900B0FBF1F807E00AEBCA0000EB81
:105820000A1031688900B0FBF1F86420B8FBF0F091
:1058300004012009642101FB1089A88900F40040BB
:1058400040B1322000EBC900B0FBF1F000F00700DE
:10585000044308E0322000EB09106421B0FBF1F0B2
:1058600000F00F0004432C8106B0BDE8F087000073
:105870000038014001468888C0F308007047C1F332
:1058800008028280704700BFFEE7000030B58BB091
:1058900005460C461048FBF7A1FB01210846FEF720
:1058A000FFF80E480090019510200290039400200C
:1058B00004908020059080010990002006900790B8
:1058C00008900A9069460448FBF748FC0121024809
:1058D000FBF778FB0BB030BD4400024004380140B8
:1058E00000B58BB01348FBF779FB01210846FEF7A2
:1058F000D7F81148009011480190002002901048FC
:1059000000880390002004908020059040010990B9
:105910000020069007902020089000200A906946F9
:105920000448FBF71BFC01210248FBF74BFB0BB0C3
:1059300000BD000030000240044800407E0100200D
:105940007C00002070B505460C4645F25550FCF72A
:1059500015F82846FCF706F82046FCF709F870BD54
:1059600010B5FBF7EFFF10BD01460E4880880E4AC8
:105970001288904201DB002070470A484288801D4F
:105980008154801F4088401C074A128890FBF2F324
:1059900002FB1300034A508010468088401C908010
:1059A0000120E9E7140300207C0000200FB4054B20
:1059B00010B503A9044A029800F016FC10BC5DF86B
:1059C00014FB000031740008E0000020490050EA98
:1059D000C12018BF04204A0D18BF40F0010040F25A
:1059E000FF72B2EB515F08BF40F00200012808BF10
:1059F000052070472DE9F74F144694B00021C4E903
:105A000002111599079121F00045C9498D4206DC24
:105A10001599C4E9000117B00020BDE8F08FC54911
:105A2000DFF814A3A9423CDD0799C44E0029C44FF6
:105A3000C44A1599534619DDFAF7FFFC554506D0BF
:105A4000C14AC24BFAF7F9FCC4E900010AE04FF081
:105A5000D352BE4BFAF7F1FC32463B46FAF7EDFC67
:105A6000C4E9000117B00120BDE8F08FFAF744FC4B
:105A7000554506D0B44AB54BFAF73EFCC4E90001DF
:105A80000AE04FF0D352B14BFAF736FC32463B46B0
:105A9000FAF732FCC4E9000117B04FF0FF30BDE85F
:105AA000F08FAB49A942159978DB21F0004183467C
:105AB0008846A84AA84BFAF7C6FC0022A74BFAF77B
:105AC0001BFCFAF7EDFD0990FAF7ACFD06460F4610
:105AD0009C4A5346FAF7B7FC43465A46FAF7B0FCDD
:105AE00080468A46984A994B30463946FAF7ABFCCD
:105AF0002A0D01250B9242465346FAF7A1FC032DCD
:105B0000C4E9000139D00B98C1F30A51401A05EBE2
:105B100045111139814230DA9148C346784400EB8F
:105B20000510CDF80CA00C90D0E900233046394682
:105B3000FAF789FC02460B460491069058460399F1
:105B4000FAF77BFC80468A4602460B465846039984
:105B5000FAF773FC049B069AFAF76FFC83460C98DD
:105B600003913946D0E902233046FAF76CFC5A46D5
:105B7000039BFAF762FC6D1CBDE707980028A2BFE3
:105B8000099817B0BDE8F08F616881F0004161604D
:105B9000099817B04042BDE8F08FFFE7844615989A
:105BA000C1F31301C0F30A50A0F2F5304FEA6018B8
:105BB00000F01F06C6F12000139000200690079009
:105BC00041F4801E05206D4676B1664A08EB00015F
:105BD0007A4452F8213002EB8101B3404A681399AC
:105BE00022FA01F1194305E05F4908EB000279440C
:105BF00051F82210A1FB0E27A1FB0C131A449A4264
:105C000034BF0123002303EB070A05EB8003D3E92C
:105C100001B70F448F4234BF0121002193448B44CC
:105C200011B1934502D903E0934501D2012100E06F
:105C30000021C3E901B7514445F82010011EA0F12D
:105C40000100C1DC0298059F00F10050800F129006
:105C50000298DDE903568000FAF7E4FC8346284603
:105C60000D91FAF74DFF6FF01D02FAF7B7FECDE97F
:105C70000E013046FAF744FF6FF03D02FAF7AEFE30
:105C800080468A463846FAF73BFF6FF05D02FAF726
:105C9000A5FE0746424653461191FAF72DFBDDE972
:105CA0000E23FAF729FB5A460D9BFAF725FB002530
:105CB0000E465A4628460D9BFAF7BFFBDDE90E2338
:105CC000FAF7BBFB42465346FAF7B7FB3A46119B3D
:105CD000FAF7B6FBDFF898A0244A5346FAF7B3FB6D
:105CE00007468846234A244B31462846FAF7ABFB41
:105CF0003A464346FAF700FB074688464FF0A8426B
:105D0000534631462846FAF79EFB3A464346FAF791
:105D1000F3FA159A12F0004F04D0129A81F0004164
:105D200052421292C4E90001129817B0BDE8F08FF8
:105D3000FB21E93F7CD90240FB21F93F7370032E20
:105D40008A19A33B000040543163621A61B4D03D0C
:105D5000FB21394183C8C96D305FE43F0000E03F5B
:105D6000A82500002425000006250000182D445415
:105D7000FB21F93D3326A611460B113C2DE9FF4DC1
:105D800021F0004807460C46B8F1795F08DAFAF7C7
:105D900087FC002801BF0020324904B0BDE8F08D27
:105DA0003A46234610461946FAF74DFB0546024689
:105DB0002D480E460B460621784400F05DF82A4631
:105DC0003346FAF740FBDDE9022382468B4638462C
:105DD0002146FAF738FB04460F4652465B462846F2
:105DE0003146FAF730FB22463B46FAF726FB0746D8
:105DF0008A464FF0FF3228463146FAF7EFFD1B4A3C
:105E000090450ADA3A465346FAF717FB04B00022E7
:105E1000BDE8F04D134BFAF713BB154A4245A8BF36
:105E2000A8F500154FF00004B8BF124D22462B46CE
:105E3000FAF703FB0646884622462B46002009490E
:105E4000FAF7FBFA04460D463A46534630464146B9
:105E5000FAF7F3FA04B022462B46BDE8F04DFAF704
:105E6000EFBA00000000F03FD42200003333D33FEC
:105E70000000E93F0000D23F2DE9F0414F1E00EB4A
:105E8000C7010446D1E9000115461E4637F0060257
:105E90000DD02A463346FAF7D6FA7F1E04EBC70325
:105EA000D3E90023FAF728FA37F00602F1D1022FDE
:105EB00025D0042F13D0062F18BFBDE8F0812A4645
:105EC0003346FAF7C0FAD4E90A23FAF715FA2A4654
:105ED0003346FAF7B8FAD4E90823FAF70DFA2A4656
:105EE0003346FAF7B0FAD4E90623FAF705FA2A4658
:105EF0003346FAF7A8FAD4E90423FAF7FDF92A465B
:105F00003346FAF7A0FAD4E90223FAF7F5F92A465C
:105F10003346FAF798FAD4E90023BDE8F041FAF7DE
:105F2000EBB900002DE9FF4D054621F0004084B09B
:105F30000C46B0F1795F0BDA2846FFF747FD0428DD
:105F400008BF00F071F8284608B02146BDE8F08D82
:105F50002A460B461046FAF776FA06460F462A46B8
:105F60002346FAF770FA804626488A4632463B4670
:105F700005217844FFF780FF83461098029160B3B3
:105F8000214A224B40465146FAF75DFACDE900011D
:105F90005A4640465146029BFAF755FA82468846D1
:105FA000DDE906014FF0FF32FAF718FD524643468D
:105FB000FAF743FA32463B46FAF745FADDE906239B
:105FC000FAF73BFADDE90023FAF737FA08B02A4678
:105FD0002346BDE8F04DFAF733BA0B465A46304631
:105FE0003946FAF730FA084A084BFAF785F942467B
:105FF0005346FAF728FA08B02A462346BDE8F04D82
:10600000FAF77AB91A220000495555555555C5BFBA
:106010000122FAF7E3BCFAF76FB9002213461046E3
:106020001146FAF782BA0000024A00201107FAF777
:10603000D5BC000001FDFFFF02E008C8121F08C127
:10604000002AFAD170477047002001E001C1121FF9
:10605000002AFBD17047000001490860704700002A
:10606000E40000202DE9FF5F82B00021DDE904306B
:10607000020DDDF840B0034318D044F61050A2F2F0
:10608000FF3242431514119801281FD0A5EB0B00D5
:10609000401C5FEA000A4FF000064E4FDFF83891CF
:1060A000B046504615D5CAF1000413E011980124FA
:1060B0004AA3012801D16FEA0B010298119AC0E9A5
:1060C0000031C0E9024206B0BDE8F09FCBF100000C
:1060D000DFE704460021404A491842EB0450CDE96D
:1060E000001012E0E00707D032463B4640464946E2
:1060F000FAF7A9F98046894632463B4610461946CA
:10610000FAF7A1F906460F466410002CEAD1DDE942
:106110000401DDE90023BAF1000F06DAFAF793F97A
:1061200042464B46FAF78FF905E0FAF7FEF9424688
:106130004B46FAF7FAF904460E460022284BFAF7C6
:10614000F9FA03D84FF0FF30014607E00022254B53
:1061500020463146FAF7D0F8FAF7A8FC102409E0F7
:10616000002C0ADB0A220023FAF742FB039B3032A1
:106170001A55641E50EA0102F2D1641C039AC4F15C
:1061800011031444119A012A03D0012208430DD1AE
:106190000AE0084304D000204FF0110B119072E781
:1061A000A3EB0B056D1E0DE05B4504DD4FF0000217
:1061B00005F1010504E003DA4FF00002A5F1010545
:1061C000002AECD002981199C0E90231C0E90045DB
:1061D00079E70000000014400000F03F30000000AC
:1061E0000000F0430000E03F2DE9FF4F95B09B46D3
:1061F0008946064600250FE2252877D10024274648
:10620000F84A0121059400E0044316F8013F203BC1
:1062100001FA03F01042F7D130782A2811D06FF03C
:106220002F033078A0F13002092A16D8059A44F0DD
:10623000020402EB820203EB42021044761C05903A
:10624000EFE759F8042B0592002A03DA504244F490
:106250000054059044F00204761C30782E2816D1A4
:1062600016F8010F44F004042A280DD06FF02F0215
:106270003078A0F13003092B09D807EB870302EB34
:106280004303C718761CF3E759F8047B761C307873
:106290006C280FD006DC4C2817D068280DD06A284F
:1062A00014D104E0742810D07A280FD10DE044F402
:1062B00000140AE044F4801401E044F440147278BD
:1062C000824202D104F58014761C761C3078662850
:1062D0000BD013DC582877D009DC002875D045286E
:1062E000F6D04628F4D047281AD19DE118E063285B
:1062F00035D0642879D0652812D195E1702873D003
:1063000008DC6728F1D069286FD06E280DD06F287F
:1063100006D1B5E073282CD0752875D0782874D0B4
:106320005A46179990476D1C75E1C4F30250022834
:1063300009D003280DD0D9F8001004280DD00D6025
:1063400009F1040967E1D9F80010EA17C1E9005220
:10635000F6E7D9F800100D80F2E70D70F0E719F8B4
:10636000041B8DF8001000208DF80100EA46012082
:1063700003E059F804AB4FF0FF3061074FF0000124
:1063800002D40DE008F101018846B9420FDA8045D8
:10639000F8DB1AF808100029F4D108E008F101012F
:1063A00088468142FADB1AF808100029F6D10598D0
:1063B0005B46A0EB080721463846179A00F094FA8E
:1063C000284400EB080507E04DE029E10DE01AF84C
:1063D000010B5A4617999047B8F10108F7D25B466E
:1063E00021463846179A13E142E00A220092C4F38C
:1063F00002524FF0000A022A08D059F804CB032AAF
:106400004FEAEC710AD00DE029E02AE009F107011A
:1064100021F00702F2E802C1914609E00FFA8CFC74
:106420004FEAEC71042A03D14FFA8CFC4FEAEC716D
:10643000002907DA0A460021DCF1000C61EB0201B9
:106440002D2202E0220504D52B228DF80420012202
:1064500003E0E20701D02022F7E7904659E00A2145
:1064600002E010220DE010214FF0000A00910BE035
:1064700010224FF0000A44F004040827009203E0C1
:1064800008224FF0000A0092C4F30252022A05D0FB
:1064900059F804CB0021032A08D009E009F10701CB
:1064A00021F00702F2E802C1914605E01FFA8CFCD8
:1064B000042A01D10CF0FF0C4FF00008220728D568
:1064C000702806D0009B83F0100353EA0A0305D01E
:1064D0000EE040228DF80420012208E05CEA01026F
:1064E00006D030228DF804208DF805000222904657
:1064F000009B83F0080353EA0A030AD15CEA010215
:1065000001D1620705D530228DF804204FF0010833
:106510007F1E582804D034A003900EA802900DE0EE
:1065200036A0F9E753466046009AFAF761F98446C7
:106530000398825C0298401E029002705CEA01009F
:10654000F0D1029806A9081A00F1200A600702D5C6
:1065500024F4803400E00127574502DDA7EB0A0050
:1065600000E0002000EB0A01009005984144401A29
:106570000590E00306D45B462146179A059800F083
:10658000B3F90544002706E001A85A46C05D1799F3
:1065900090476D1C7F1C4745F6DBE0030CD55B463E
:1065A0002146179A059800F09FF9054404E0302031
:1065B0005A46179990476D1C0099481E0090002973
:1065C000F5DC08E0029802995A460078491C0291CD
:1065D000179990476D1CBAF10001AAF1010AF1DC8C
:1065E00065E1000009280100303132333435363797
:1065F000383961626364656600000000303132330F
:1066000034353637383941424344454600000000AE
:1066100000F058F90544761C307800287FF4ECAD82
:1066200019B02846BDE8F08F620700D4062709F1AB
:10663000070222F0070CFCE80223E14603F00048C1
:106640005FEA080C02D00FF2702C0DE05FEA045CE8
:1066500002D50FF2682C07E05FEAC47C02D00FF28B
:10666000602C01E0AFF2700C4FF0FF3823F00043D4
:10667000CDF850C065280CD006DC452809D0462846
:106680001DD047283DD13DE0662818D067287ED12F
:1066900038E00021112F01DB112000E0781CCDE94A
:1066A000000106A90EA8FFF7DDFCDDE90F010E9A37
:1066B00003910021009207F1010A04914DE04FF08F
:1066C00000400097CDE9011006A90EA8FFF7CAFC0B
:1066D000DDE90F0203920E9B11990022DDF80CA058
:1066E0000093049211B9791C00EB010AB7EB0A0080
:1066F00004D4C0F1FF3007F1010A0490AAEB0700AF
:10670000019044E0012F00DA01270021112F01DD63
:10671000112000E03846CDE9000106A90EA8FFF7D8
:10672000A1FCDDE90F010E9A039100210491009272
:10673000BA4621070CD40399514500DA8A46BAF1CA
:10674000010F05DD009AAAF10101515C302908D042
:10675000B84202DA10F1040F06DA0121CDE9011086
:1067600015E0AAF10101E9E7002805DC04990144DC
:106770000491AAEB000102E0411C514500DD8A466C
:106780000499401A401C01904FF0004002902007ED
:1067900004D40198504501DBCDF8048000208DF829
:1067A0004F0002980DF14F07B0F1004F25D02B207C
:1067B0000E9002984FF0020800280CDA4042029036
:1067C0002D200E9007E00A210298F9F7FBFF3031E7
:1067D000029007F8011DB8F10001A8F10108F2DCF0
:1067E00002980028EFD1791E0E980870307800F0DA
:1067F000200040F0450007F8020D12A8C01B00F170
:1068000007081498007800B1012000EB0A010198F4
:1068100001EBE07105984144401A401E0590E003E9
:1068200006D45B462146179A059800F05DF80544AA
:106830001498007818B15A46179990476D1CE003D8
:1068400024D55B462146179A059800F04DF805447B
:106850001CE00498002807DBDDE90301884203DD22
:106860000098405C179901E0179930205A469047EC
:10687000049805F10105401C04900198401E019008
:1068800004D12E205A46179990476D1CBAF1000189
:10689000AAF1010ADDDC05E017F8010B5A46179949
:1068A00090476D1CB8F10001A8F10108F4DC5B46CB
:1068B0002146179A0598ABE62D0000002B0000003A
:1068C000200000002DE9F041044600251E46174631
:1068D000880404D405E039462020B0476D1C641EAE
:1068E000F9D52846BDE8F0812DE9F04104460025A0
:1068F0001E469046C80301D5302700E020278804B3
:1069000004D505E041463846B0476D1C641EF9D5F4
:106910002846BDE8F08100002DE9F04D8D4F21F0B3
:10692000004A86B005460C46BA452ADBAAEB0700AA
:1069300028430AD08848824501DC1AD1CDB106B07F
:106940002846BDE8F04DFFF763BB844A844B2846D8
:10695000F9F779FD07460E46824A834B28462146C1
:10696000F9F771FD06B03A463346BDE8F04DF9F748
:10697000C3BC0120FFF770FB06B0BDE8F04DFFF788
:106980004CBB7A48824542DABAF1795F0BDA284685
:10699000FFF71CF8042808BFFFF746FB284606B09F
:1069A0002146BDE8F08D2A460B461046F9F74BFD0F
:1069B000834602466E480E460B4606217844FFF792
:1069C0005BFA5A463346F9F73EFD804669488A46E7
:1069D0005A46334604217844FFF74EFA5A46334666
:1069E000F9F731FD00223B46F9F786FC02460B46DB
:1069F00040465146F9F799FD2A462346F9F723FD0B
:106A000006B02A462346BDE8F04DF9F775BC284686
:106A100024F0004100223D463B46F9F711FD4FF0BE
:106A2000FF32F9F7DBFF0646024653480F460B4696
:106A300006217844FFF720FA32463B46F9F703FD7A
:106A4000CDE900014D4832463B4604217844FFF72A
:106A500013FA32463B46F9F7F6FC00222B46F9F7CB
:106A60004BFC834602913046394601F009F88046D6
:106A700043480D46504517DCDDE900015A46029BAC
:106A8000F9F753FD42462B46F9F7DDFC42462B460B
:106A9000F9F732FC0122F9F7A1FF304A304BF9F740
:106AA000CCFC304A304B4CE04FF0000A52460B46CB
:106AB0004046F9F721FCCDE9031052462B4610461B
:106AC0001946F9F7C0FC32463B46F9F7B9FCDDE957
:106AD0000332F9F72AFD06460F46DDE900015A4662
:106AE000029BF9F722FD8346009101223046394688
:106AF000F9F774FF194A1A4BF9F7A2FC06460F463C
:106B0000012240462946F9F769FF5A46009BF9F7EA
:106B10009AFC32463B46F9F790FC06460F460122A6
:106B200050462946F9F75AFF0E4DDFF858802A469D
:106B30004346F9F785FC32463B46F9F781FC2A4685
:106B40004346F9F77DFC002CD8BF81F0004106B028
:106B5000BDE8F08D0000F03F0000F07F075C1433CB
:106B600026A6913C182D4454FB21F93F0000E03F3C
:106B7000E8150000FE1500007215000088150000E1
:106B80003333EF3FFB21E93F2DE9F84F04460D4633
:106B900021F0004000917349814211DC7249884222
:106BA00001DC06D12CB120462946BDE8F84FFFF79D
:106BB0002FBA6E48002DCCBF6D496E49BDE8F88FE5
:106BC0006D49814211DD6D498142D8BF4FF0FF36DA
:106BD0006DDD20462946FEF7F9FE042808BFFFF7C1
:106BE00023FA20462946BDE8F88F6549654F25F010
:106BF0000045814233DD6449814219DD0026324679
:106C00004FF0804320462946F9F776FB80468A46B6
:106C1000012220462946F9F7E1FE00223B46F9F71A
:106C20000CFC42465346F9F780FC04460D463EE014
:106C300001260022BA463B4620462946F9F75CFB6E
:106C400080460F460022534620462946F9F7F5FBB9
:106C500042463B46F9F769FC04460D4627E04B499E
:106C600081421BDDDFF828A1022600225346204680
:106C70002946F9F7E8FB00223B46F9F73DFB804641
:106C80000F460022534620462946F9F7D6FB4246D6
:106C90003B46F9F74AFC04460D4608E00326224627
:106CA0002B4600203B49F9F740FC04460D4622469E
:106CB0002B4610461946F9F7C6FB8B46824602461C
:106CC0000B46F9F7C0FB07460246334888460B4699
:106CD00006217844FFF7D0F852465B46F9F7B3FB3C
:106CE00082462E488B463A46434605217844FFF7B4
:106CF000C3F83A464346F9F7A6FB02460B46002E78
:106D0000504659460CDAF9F7F7FA22462B46F9F7BE
:106D10009AFB01B022462B46BDE8F04FF9F790BB35
:106D2000F9F7EAFA22462B46F9F78DFB1C4A7A441A
:106D300002EBC603D3E90023F9F77FFB22462B467B
:106D4000F9F77BFB174A7A4402EBC603D3E9002329
:106D5000F9F776FB009A002AB8BF81F00041BDE840
:106D6000F88F0000000010440000F07F182D4454FC
:106D7000FB21F93FFB21F9BF0000DC3F0000203E72
:106D80000000F33F0000F03F0000E63F00800340BA
:106D90000000F83F0000F0BF8A1300004813000015
:106DA000E6120000AE1200002DE9F04D9446CCF141
:106DB000000423F000464CEA0404524F46EAD4741F
:106DC0009A46884621F00042BC4206D8454240EA35
:106DD000050442EAD474BC4204D9BDE8F04D6246D1
:106DE000FFF719B9AAF14055A5F17F6555EA0C04E2
:106DF0000BD0022404EAAA74434DDFF810E144EA00
:106E0000D87452EA000B04D00CE0BDE8F04DFFF757
:106E1000BBBE002C14BF012CBDE8F08D022C30D07D
:106E2000032C32D056EA0C0B0AD0BE4220D1BA4213
:106E300009D126F0804622F080423346114617E001
:106E400000291ADB25E0DFF8C8B0FB44002C04BFA2
:106E5000DBE90001BDE8F08D012C02BFDBE9000198
:106E600081F00041BDE8F08D022C0AD0032C0CD03B
:106E7000BA4212D1B8F1000F0BDA23482549BDE818
:106E8000F08D28462449BDE8F08D28467146BDE8BE
:106E9000F08D1D482149BDE8F08D921B12153C2A4A
:106EA000C4BF19481D490EDCBAF1000FBEBF12F174
:106EB0003C0F0020014606DB6246F9F736FB21F065
:106EC0000041FFF761FE002C08BFBDE8F08D012CEA
:106ED00004BF81F00041BDE8F08D114A114B022C36
:106EE00007D0F9F7AAFA2A46BDE8F04D0A4BF9F7A0
:106EF000A4BAF9F7A2FA2A46BDE8F04D064BF9F715
:106F00009FBA00000000F07F182D4454FB2109C0F7
:106F100072120000FB21F9BFFB210940FB21F93F60
:106F2000075C143326A6A13C10B5FAF799FC3C2067
:106F3000FAF75EFCFAF7D8FC0020FAF759FCFAF7EA
:106F4000D3FC7820FAF754FCFAF7CEFC0020FAF7CD
:106F50004FFCFAF7C9FC0020FAF74AFCFAF7C4FC28
:106F6000FAF7A2FC10BD2DE9F05F06460F46144665
:106F70001D4621462846F9F7F7F881464946284636
:106F8000F9F77CF9804641464FF07E50F9F73EF91B
:106F900083463946F9F740F9814641463046F9F7CC
:106FA0003BF982464946F9F7DFF8BDE8F09F10B596
:106FB0000024FAF755FC3C20FAF71AFCFAF794FC87
:106FC0000920FAF715FCFAF78FFCFAF76DFCFAF7CF
:106FD00047FC3D20FAF70CFCFAF786FC0020FAF794
:106FE000D7FB0446FAF760FC04F0010008B1012069
:106FF00010BD0020FCE7000000B5244B21F000424A
:1070000087B09A42DCBF0022134629DD204B9A420A
:1070100008D140B94FF00100FFF71EF8FEF7FDFF61
:1070200007B000BD03DBFEF7F3FF07B000BD02AA07
:10703000FEF7E0FC10F0030104BF0DF1080C9CE822
:107040000F000DD0012001290ED0022914D00DF11E
:10705000080C00909CE80F00FEF764FF07B000BD2D
:10706000FEF78CFE07B000BD0DF1080C00909CE807
:107070000F00FEF757FF05E00DF1080C9CE80F002C
:10708000FEF77CFE07B081F0004100BDFB21E93F27
:107090000000F07F2DE9F0414320FBF7C3F8804664
:1070A000F9F7C0FA06464FF0CC32294BF9F73DFA12
:1070B0000446F9F757FB274908604520FBF7B2F86B
:1070C0008046F9F7AFFA06464FF0CC32204BF9F77D
:1070D0002CFA0446F9F746FB1E4948604720FBF7A7
:1070E000A1F88046F9F79EFA06464FF0CC32184BCD
:1070F000F9F71BFA0446F9F735FB164988603B207F
:10710000FBF790F80546F9F77FFA04464FF08D41FA
:10711000F9F7B4F8104908603D20FBF783F80546FD
:10712000F9F772FA04464FF08D41F9F7A7F80A49CA
:1071300048603F20FBF776F80546F9F765FA044604
:107140004FF08D41F9F79AF803498860BDE8F08166
:107150004C52BD40300100200C01002010B5044607
:107160006FF00400FCF78CFF094800680949B0FB88
:10717000F1F0094908700846007800EB4001C1EBC6
:10718000C0104FF6FF7101EAC0000449088010BD2D
:107190001400002000127A00A8000020AA0000209D
:1071A00001460D4A12884A434FF0E0235A610022FB
:1071B0009A6101221A6100BF4FF0E022106900F0CD
:1071C00001021AB100F48032002AF5D000224FF0FB
:1071D000E0231A619A617047AA00002001460E4A16
:1071E00012784A434FF0E0235A6100229A6101224B
:1071F0001A6100BF4FF0E022106900F001021AB1DD
:1072000000F48032002AF5D06FF001024FF0E02345
:107210001A6100229A617047A800002010B5FAF7A1
:1072200099FB10BD2DE9F041044676480068764987
:107230000860744840684860724880688860734895
:107240000068704908607148406848606F4880680D
:1072500088602046F9F7E1F9074639464FF07E503D
:10726000F9F70CF80546684A1168664A1068F8F79D
:10727000CDFF064664490868654B2A463146FFF74C
:1072800072FE604908602046F9F7C7F9074639469B
:107290004FF07E50F8F7F2FF05465B4A5168594AB5
:1072A0005068F8F7B3FF064657494868584B2A46D6
:1072B0003146FFF758FE534948602046F9F7ADF9CB
:1072C000074639464FF07E50F8F7D8FF05464E4A3C
:1072D00091684C4A9068F8F799FF06464A498868D1
:1072E0004B4B2A463146FFF73EFE464988604948E7
:1072F00000684949086047484068486045488068D8
:107300008860464A1168464A1068F8F77FFF41498D
:107310000860424A5168424A5068F8F777FF3D4991
:1073200048603E4A91683E4A9068F8F76FFF3949D5
:1073300088602046F9F771F9074639464FF07E50CC
:10734000F8F79CFF0546344A1168324A1068F8F78E
:107350005DFF0646304908682D4B2A463146FFF747
:1073600002FE2C4908602046F9F757F907463946CE
:107370004FF07E50F8F782FF0546274A5168254AAC
:107380005068F8F743FF064623494868204B2A46D1
:107390003146FFF7E8FD1F4948602046F9F73DF9FF
:1073A000074639464FF07E50F8F768FF05461A4AFF
:1073B0009168184A9068F8F729FF064616498868C8
:1073C000134B2A463146FFF7CEFD12498860154817
:1073D000008815490988401A00B2144908801148EC
:1073E000408811494988401A00B2104948800D4828
:1073F00080880D498988401A00B20C498880BDE810
:10740000F081000018010020240100200C01002060
:10741000CDCC4C3D3C01002048010020540100200F
:10742000300100202A00002036000020300000201B
:1074300070B504460D4607480088E1B20548FEF7DE
:107440001EFA00BF40210348FEF74CF90128F9D18C
:10745000204670BD003801402DE9F04704464FF04A
:107460007C512046F8F7D8FE814625462E460C482A
:10747000A0EB6606354629464846F8F7CDFE82461B
:107480002946F8F7C9FE80464FF07F51F8F7C1FE54
:1074900007462946F8F7C0FE05462846BDE8F087AE
:1074A000DF59375FFAF770FA01E0FAF77BFDFCE786
:1074B00070B52AA0FEF77AFA2D490868F9F70FF996
:1074C000044622460B462BA0FEF770FA284948686E
:1074D000F9F705F9044622460B462AA0FEF766FA9C
:1074E00023498868F9F7FBF8044622460B4629A091
:1074F000FEF75CFA2B490868F9F7F1F804462246D2
:107500000B4629A0FEF752FA26494868F9F7E7F832
:10751000044622460B4628A0FEF748FA214988680F
:10752000F9F7DDF8044622460B4627A0FEF73EFA9F
:107530002948B0F9001029A0FEF738FA2648B0F91A
:10754000021029A0FEF732FA2348B0F9041029A04E
:10755000FEF72CFA2AA0FEF729FA70BD0A3D3D3D40
:107560003D494D5520444154413D3D3D3D000000C5
:107570000C0100200A414343454C5F583A20252E18
:1075800032662000414343454C5F593A20252E3254
:1075900066200000414343454C5F5A3A20252E3275
:1075A000660A0000300100204759524F5F583A20C8
:1075B000252E3266200000004759524F5F593A206D
:1075C000252E3266200000004759524F5F5A3A205C
:1075D000252E32660A0000002A0000204D41475F38
:1075E000583A2025642000004D41475F593A202534
:1075F000642000004D41475F5A3A2025640A00008C
:107600003D3D3D3D3D3D3D3D3D3D3D3D3D3D3D3DAA
:107610000A0000007FB5002500260024002002900B
:1076200079A103C9CDE90001FAF74AF8642817DB0C
:1076300000BF12E003A8FCF725FC58B11DF80500B7
:107640009DF80C10884206D1681CC5B2062D02D3E5
:10765000012604E003E0601C84B2642CEADD00BF74
:10766000002E6FD01420FCF7E9F96948FCF70AFCFA
:107670006748401CFCF706FC0120FCF7DFF9644872
:10768000801CFCF7FFFB00206149486000240DE0EE
:1076900002A8FCF7F7FB5E48E20041689DF808008D
:1076A000904008445A494860601C84B2042CEFDBC7
:1076B00000205749886000240DE002A8FCF7E2FB97
:1076C0005348E20081689DF8080090400844504902
:1076D0008860601C84B2042CEFDB0820FCF7AEF954
:1076E00000204B49C86100240DE002A8FCF7CAFB4A
:1076F0004748E200C1699DF80800904008444449A9
:10770000C861601C84B2042CEFDB0420FCF796F9FE
:1077100000203F49086100240DE002A8FCF7B2FBFD
:107720003B48E20001699DF8080090400844384950
:107730000861601C84B2042CEFDB00203449C8606F
:1077400000240EE05EE002A8FCF79CFB3048E2005B
:10775000C1689DF80800904008442D49C860601C2D
:1077600084B2042CEFDB00202949486100240DE09D
:1077700002A8FCF787FB2648E20041699DF8080053
:107780009040084422494861601C84B2042CEFDB1D
:107790000820FCF753F900201D49886100240DE002
:1077A00002A8FCF76FFB1A48E20081699DF8080007
:1077B0009040084416498861601C84B2042CEFDBB9
:1077C0000420FCF73BF9002011490884002414E050
:1077D00002A8FCF757FB0E48018CE2009DF8080058
:1077E000904008440A4908840846008C642190FBB4
:1077F000F1F007490884601C84B2022CE8DB012008
:1078000004B070BD0020FBE7B56201075C0000001A
:10781000E80000201CB5FFF7CAFB08B900201CBD1A
:10782000FAF71EF83C20F9F7E3FFFAF75DF80320BA
:10783000F9F7DEFFFAF758F8FAF736F8FAF710F822
:107840003D20F9F7D5FFFAF74FF800240EE0052C9C
:1078500005DB0020F9F79CFF0DF8040004E001208F
:10786000F9F796FF0DF80400601CC4B2062CEEDB9D
:10787000FAF71AF89DF801009DF8001000EB0120BE
:1078800000B20B4908809DF803009DF8021000EB40
:10789000012000B2064988809DF805009DF804107B
:1078A00000EB012000B2024948800120B7E7000048
:1078B0002A000020F0B589B0002400250027002010
:1078C0000890079000263BA000680690F9F7F2FEAA
:1078D0003949098888422FDB00BF27E008A8FCF758
:1078E000B1FA06A8405D9DF8201088421AD1681CA4
:1078F00085B2022D17D3002409E001A90819FCF76D
:10790000A1FA01A8005D3044C6B2601C84B2112CFB
:10791000F3D307A8FCF796FA9DF81C00864200D125
:10792000012708E000E000BF601C84B22248008804
:10793000401EA042D2DA00BFC7B300201F49088012
:1079400000240FE001A8005D07901C480188C4F1E5
:107950000100C2009DF81C009040084417490880AF
:10796000601C84B2022CEDDB9DF8060013494880B0
:1079700000204880002410E001A9A01C085C0790AA
:107980000E484188C4F10100C2009DF81C009040DF
:1079900008440A494880601C84B2022CECDB9DF844
:1079A000080006490871012009B0F0BDFFE700207A
:1079B000FAE70000637300004C0000206400002020
:1079C00000200249088048808880704746020020D5
:1079D0000020024908804880888070477801002094
:1079E00000B5254B21F0004287B09A4203DC00220B
:1079F000134600922BE0214B9A4208D140B94FF038
:107A00000100FEF729FBFEF708FB07B000BD03DB12
:107A1000FEF7FEFA07B000BD02AAFDF7EBFF10F07B
:107A200003014FF001000DD0012914D002291AD012
:107A30000DF1080C9CE80F00FEF7A0F907B081F0EB
:107A4000004100BD0DF1080C00909CE80F00FEF70E
:107A500069FA07B000BD0DF1080C9CE80F00FEF7B5
:107A60008DF907B000BD0DF1080C00909CE80F00E7
:107A7000FEF758FAE2E70000FB21E93F0000F07F43
:107A80002DE9F04106460F46F8F7BFFF041E0D46EC
:107A900018BF0120284320F00040C0F17F6000F1B2
:107AA000E040C00F0ED0301C18BF0120384320F03A
:107AB0000040C0F17F6000F1E040C00F04BF012032
:107AC000FEF7CAFA20462946BDE8F0812DE9F84FB5
:107AD00000267448D0F80480D0F8089072480068F6
:107AE000F8F7CAFD1FFA80FA70480068F8F7C4FD7D
:107AF0001FFA80FB6E480068F8F7BEFD80B2009068
:107B000000256848C0694FF47A71B0FBF1F7FE2F89
:107B100000D3FF27FCF7AEFA052804D0FCF7AAFA39
:107B200045EA8010C5B26348007845EA0010C5B246
:107B300000240FE0E1004FF07F40C84000EA080059
:107B4000C4F10301C900C840C1B2A01C5A4A115473
:107B5000601CC4B2042CEDDB00240FE0E1004FF008
:107B60007F40C84000EA0900C4F10301C900C840D1
:107B7000C1B2A01D504A1154601CC4B2042CEDDBEC
:107B8000002410E0E1004FF47F40084100EA0A00C1
:107B9000C4F10101C9000841C1B204F10A00464A1A
:107BA0001154601CC4B2022CECDB002410E0E10094
:107BB0004FF47F40084100EA0B00C4F10101C90005
:107BC0000841C1B204F10C003B4A1154601CC4B21C
:107BD000022CECDB002410E0E1004FF47F40084170
:107BE00000990840C4F10101C9000841C1B204F183
:107BF0000E00314A1154601CC4B2022CECDB2E4939
:107C00000F74002406E0002104F111002A4A1154E7
:107C1000601CC4B2032CF6DB27480575002417E06E
:107C2000022C09DB25480088401EA04204DD2248C2
:107C3000005D3044C6B209E020480088401EA042E2
:107C400004D11E480088401E1B490E54601CC4B25B
:107C5000162CE5D31A48007880B1FBF7DBFFF0B9AA
:107C60004FF40050F9F764FAC8B14FF40050F9F737
:107C70009BF912480088FDF737FC10E01148F9F72E
:107C800053FA60B94FF40050F9F752FA38B14FF493
:107C90000050F9F789F909480088FDF725FCBDE88F
:107CA000F88F0000E80000209C000020A0000020C9
:107CB000A40000206D0000204E0000204C00002099
:107CC0006A0000204400024010B586B0044601213D
:107CD0000920FBF715FF01218804FBF7F1FE274877
:107CE000FDF7B2FC4FF48060ADF8140018208DF859
:107CF000170003208DF8160005A92148F9F718FC94
:107D00004FF40060ADF8140004208DF8170005A9A9
:107D10001B48F9F70DFC27208DF8000003208DF893
:107D200001008DF8020001208DF803006846FBF782
:107D300043FE01940020ADF80800ADF80A00ADF84C
:107D40000C00ADF810000C20ADF80E0001A90B4896
:107D5000FDF724FD012240F224410848FDF7F9FC1B
:107D6000FDF7BEFD012240210448FDF763FC01211F
:107D70000248FDF753FC06B010BD0000004800406B
:107D8000000C014070B586B004460E461546012130
:107D900044F20500FBF7B4FE2848FDF755FC4FF40C
:107DA0000070ADF8140018208DF8170003208DF82E
:107DB000160005A92248F9F7BBFB4FF48060ADF827
:107DC000140004208DF8170005A91D48F9F7B0FB31
:107DD00025208DF8000003208DF801008DF80200A9
:107DE00001208DF803006846FBF7E6FD01940020B2
:107DF000ADF80800ADF80A00ADF80C00ADF81000C1
:107E00000C20ADF80E0001A90C48FDF7C7FC0122BB
:107E100040F225510948FDF79CFC4DB10948018805
:107E20000948FDF733FD012280210448FDF702FCDB
:107E300001210248FDF7F2FB06B070BD0038014099
:107E4000000801404C0000204E00002010B5FF2427
:107E5000F9F706FD3C20F9F7CBFCF9F745FD0A20C0
:107E6000F9F7C6FCF9F740FDF9F71EFDF9F7F8FC44
:107E70003D20F9F7BDFCF9F737FD0020F9F788FC44
:107E80000446F9F711FD482C01D1012010BD002056
:107E9000FCE710B5FF247520FAF7ECF90446682CCE
:107EA00001D1012010BD0020FCE7B56206001400DE
:107EB00001000000D008000000100E0001000100C9
:107EC00000000000131EB56206001400010000004F
:107ED000D0080000000807000100010000000000B9
:107EE0000480B5620600140001000000D008000004
:107EF00000C201000100010000000000B842B562AC
:107F0000060806006400010000007910B56206084A
:107F10000600C80001000000DD68B56206242400E8
:107F2000FFFF050300000000102700000500FA0015
:107F3000FA0064002C01000000001027000003007C
:107F4000000000004FCBB56206242400FFFF0403AD
:107F500000000000102700000500FA00FA0064008D
:107F60002C010000000010270000030000000000AA
:107F70004EA9B562060108000107000100000000DB
:107F800018E1B562060108000104000100000000CC
:107F900015CCB562060108000130000100000000A8
:107FA0004100000000000000555555555555C53F8E
:107FB0007D6FEB0312D6D4BF5544880E55C1C93F1F
:107FC0003B8F68B52882A4BF88B20175E0EF493FB6
:107FD00009F7FD0DE13D023F4B2D8A1C273A03C0F6
:107FE000C88A599CE52A004059018D1B6C06E6BFE2
:107FF00082922EB1C5B8B33F4FBB610567ACDD3F80
:10800000182D4454FB21E93F9BF681D20B73EF3FBF
:10801000182D4454FB21F93FE2652F227F2B7A3C37
:10802000075C143326A6813CBDCBF07A8807703CF0
:10803000075C143326A6913CC4EB98999999C9BF63
:10804000711623FEC671BCBF6D9A74AFF2B0B3BF98
:108050009AFDDE522DDEADBF2F6C6A2C44B4A2BF58
:108060000D5555555555D53FFF8300922449C23FC4
:108070006E204CC5CD45B73F513DD0A0660DB13FF8
:10808000EB0D76244B7BA93F11DA22E33AAD903F0A
:108090004C5555555555A53F7751C1166CC156BF26
:1080A0009015CB19A001FA3EAD529C804F7E92BE36
:1080B000C4B1B4BD9EEE213ED43888BEE9FAA8BD55
:1080C000000000000000000000004054FB21F93FC8
:1080D0003163621A61B4D03D0000601A61B4D03DD2
:1080E0007370032E8A19A33B0000002E8A19A33B4C
:1080F000C14920259A837B39000000000000000060
:108100006E83F9A22915444ED15727FCC0DD34F502
:10811000999562DB4190433CAB6351FE61C5BBDE88
:108120003A6E24B7E0D24D42EA2E49061C92D1099C
:108130001CEB1DFE3EA729B1F53582E88444BB2E19
:1081400026709CE9417E5FB439D69139F439538366
:108150008B5F849C3B28F9BDFF97F81F0F9805DEC5
:108160008B112FEF1F6D0A5ACF7E366DB709CB27C3
:10817000663F464F2DEA5F9EC7BA27757BF1E5EB58
:10818000F739073DEA92528AB15FFB6B085D8D1F9C
:10819000A6F810111111813FD561C119A0012ABFA4
:1081A0007DFEB157E31DC73EEB9C2B8AE6E55ABE28
:1081B0007CD5CF5A3AD9E53DD8810008000000208F
:1081C000E800000038600008C0820008E8000020D5
:1081D00010070000486000080000000001020304CE
:1081E00001020304060708090204060800A24A0463
:1081F0000000000000000000010203040607080957
:10820000000000000000000000000000000000006E
:10821000000000000000000000000000000000005E
:108220000000000116007363000000000000000061
:10823000000000000000000000000000000000003E
:108240000000000002030000000000000000000029
:1082500000000000C80000000000803F0000000097
:10826000000000000000000000000000000000000E
:1082700000000000000000000000000000000000FE
:108280000000000000003041000000000000024338
:108290000000A040000000000000000000000000FE
:1082A00000000000000000000000000000000000CE
:1082B00000000000000000000000000000000000BE
:0400000508000131BD
:00000001FF
